:10000000807D002005580100014A0200D9570100F7
:10001000D9570100D9570100D9570100000000004D
:100020000000000000000000000000004D50010032
:10003000D957010000000000BD4F0100D957010051
:10004000BD51010039670200BD510100BD510100E1
:10005000BD510100BD510100BD510100BD51010064
:10006000E7660200BD510100BD5101001F6702009B
:10007000BD510100BD510100BD510100BD51010044
:10008000BD510100BD510100BD510100BD51010034
:10009000BD510100BD510100BD510100BD51010024
:1000A000BD510100BD510100BD510100BD51010014
:1000B000BD510100BD510100BD510100BD51010004
:1000C000BD510100BD510100BD510100BD510100F4
:1000D000BD510100BD510100BD510100BD510100E4
:1000E000BD510100BD510100BD510100BD510100D4
:1000F000BD510100BD510100BD510100BD510100C4
:1001000001F0FF01102A2BDB10F0070F08D010F8C8
:10011000013B013A8B422DD010F0070F42B3F6D1CC
:10012000F0B441EA012141EA014122F007047FF0E5
:1001300000070023F0E80256083C85EA010586EA3C
:10014000010685FA47F5A3FA87F586FA47F6A5FA78
:1001500087F68EB9EED1F0BC01F0FF0102F0070284
:1001600032B110F8013B013A83EA010313B1F8D12F
:100170000020704701387047002D06BF3546033810
:10018000073815F0010F07D1013015F4807F02BF49
:10019000013015F4C03F0130F0BC0138704700BF9A
:1001A00081F0004102E000BF83F0004330B54FEA28
:1001B00041044FEA430594EA050F08BF90EA020F95
:1001C0001FBF54EA000C55EA020C7FEA645C7FEA28
:1001D000655C00F0E2804FEA5454D4EB5555B8BF4B
:1001E0006D420CDD2C4480EA020281EA030382EABC
:1001F000000083EA010180EA020281EA0303362D4E
:1002000088BF30BD11F0004F4FEA01314FF4801C20
:100210004CEA113102D0404261EB410113F0004F32
:100220004FEA03334CEA133302D0524263EB4303E9
:1002300094EA050F00F0A780A4F10104D5F1200E87
:100240000DDB02FA0EFC22FA05F2801841F10001E2
:1002500003FA0EF2801843FA05F359410EE0A5F1B6
:1002600020050EF1200E012A03FA0EFC28BF4CF0E7
:10027000020C43FA05F3C01851EBE37101F000459D
:1002800007D54FF0000EDCF1000C7EEB00006EEBAA
:100290000101B1F5801F1BD3B1F5001F0CD3490834
:1002A0005FEA30004FEA3C0C04F101044FEA44528B
:1002B00012F5800F80F09A80BCF1004F08BF5FEA12
:1002C000500C50F1000041EB045141EA050130BDF2
:1002D0005FEA4C0C404141EB0101013C28BFB1F504
:1002E000801FE9D291F0000F04BF01460020B1FA4F
:1002F00081F308BF2033A3F10B03B3F120020CDA22
:100300000C3208DD02F1140CC2F10C0201FA0CF0FF
:1003100021FA02F10CE002F11402D8BFC2F1200C64
:1003200001FA02F120FA0CFCDCBF41EA0C0190401A
:10033000E41AA2BF01EB0451294330BD6FEA040463
:100340001F3C1CDA0C340EDC04F11404C4F120024E
:1003500020FA04F001FA02F340EA030021FA04F360
:1003600045EA030130BDC4F10C04C4F1200220FAB7
:1003700002F001FA04F340EA0300294630BD21FAF5
:1003800004F0294630BD94F0000F83F4801306BFBB
:1003900081F480110134013D4EE77FEA645C18BFAF
:1003A0007FEA655C29D094EA050F08BF90EA020F46
:1003B00005D054EA000C04BF1946104630BD91EA3E
:1003C000030F1EBF0021002030BD5FEA545C05D141
:1003D0004000494128BF41F0004130BD14F5800480
:1003E0003CBF01F5801130BD01F0004545F0FE41F4
:1003F00041F470014FF0000030BD7FEA645C1ABF29
:10040000194610467FEA655C1CBF0B46024650EA5F
:10041000013406BF52EA033591EA030F41F400218B
:1004200030BD00BF90F0000F04BF0021704730B511
:100430004FF4806404F132044FF000054FF00001E6
:1004400050E700BF90F0000F04BF0021704730B5A7
:100450004FF4806404F1320410F0004548BF40427C
:100460004FF000013EE700BF42004FEAE2014FEAD1
:1004700031014FEA02701FBF12F07F4393F07F4FAC
:1004800081F06051704732F07F4208BF704793F0AF
:100490007F4F04BF41F40021704730B54FF46074C2
:1004A00001F0004521F000411CE700BF50EA0102C5
:1004B00008BF704730B54FF000050AE050EA01026E
:1004C00008BF704730B511F0004502D5404261EBDE
:1004D00041014FF4806404F132045FEA915C3FF41F
:1004E000D8AE4FF003025FEADC0C18BF03325FEABC
:1004F000DC0C18BF033202EBDC02C2F1200300FA6D
:1005000003FC20FA02F001FA03FE40EA0E0021FA91
:1005100002F11444BDE600BF70B54FF0FF0C4CF47F
:10052000E06C1CEA11541DBF1CEA135594EA0C0F31
:1005300095EA0C0F00F0DEF82C4481EA030621EA6C
:100540004C5123EA4C5350EA013518BF52EA0335A7
:1005500041F4801143F4801338D0A0FB02CE4FF059
:100560000005E1FB02E506F00042E0FB03E54FF089
:100570000006E1FB03569CF0000F18BF4EF0010E81
:10058000A4F1FF04B6F5007F64F5407404D25FEA7D
:100590004E0E6D4146EB060642EAC62141EA555130
:1005A0004FEAC52040EA5E504FEACE2EB4F1FD0C72
:1005B00088BFBCF5E06F1ED8BEF1004F08BF5FEAF0
:1005C000500E50F1000041EB045170BD06F00046A2
:1005D00046EA010140EA020081EA0301B4EB5C044F
:1005E000C2BFD4EB0C0541EA045170BD41F4801147
:1005F0004FF0000E013C00F3AB8014F1360FDEBF6C
:10060000002001F0004170BDC4F10004203C35DA47
:100610000C341BDC04F11404C4F1200500FA05F3CA
:1006200020FA04F001FA05F240EA020001F000426B
:1006300021F0004110EBD37021FA04F642EB0601E1
:100640005EEA430E08BF20EAD37070BDC4F10C040B
:10065000C4F1200500FA04F320FA05F001FA04F2CF
:1006600040EA020001F0004110EBD37041F10001BB
:100670005EEA430E08BF20EAD37070BDC4F12005C6
:1006800000FA05F24EEA020E20FA04F301FA05F22E
:1006900043EA020321FA04F001F0004121FA04F2D6
:1006A00020EA020000EBD3705EEA430E08BF20EAA6
:1006B000D37070BD94F0000F0FD101F000464000E0
:1006C00041EB010111F4801F08BF013CF7D041EA62
:1006D000060195F0000F18BF704703F00046520066
:1006E00043EB030313F4801F08BF013DF7D043EA37
:1006F0000603704794EA0C0F0CEA135518BF95EAED
:100700000C0F0CD050EA410618BF52EA4306D1D173
:1007100081EA030101F000414FF0000070BD50EA92
:10072000410606BF1046194652EA430619D094EA1C
:100730000C0F02D150EA013613D195EA0C0F05D106
:1007400052EA03361CBF104619460AD181EA03015A
:1007500001F0004141F0FE4141F470014FF0000012
:1007600070BD41F0FE4141F4780170BD70B54FF0AD
:10077000FF0C4CF4E06C1CEA11541DBF1CEA13552D
:1007800094EA0C0F95EA0C0F00F0A7F8A4EB05040F
:1007900081EA030E52EA03354FEA013100F0888006
:1007A0004FEA03334FF0805545EA131343EA1263CF
:1007B0004FEA022245EA111545EA10654FEA002684
:1007C0000EF000419D4208BF964244F1FD0404F53D
:1007D000407402D25B084FEA3202B61A65EB030599
:1007E0005B084FEA32024FF480104FF4002CB6EB56
:1007F000020E75EB030E22BFB61A754640EA0C00D6
:100800005B084FEA3202B6EB020E75EB030E22BF15
:10081000B61A754640EA5C005B084FEA3202B6EB56
:10082000020E75EB030E22BFB61A754640EA9C0015
:100830005B084FEA3202B6EB020E75EB030E22BFE5
:10084000B61A754640EADC0055EA060E18D04FEAA3
:10085000051545EA16754FEA06164FEAC30343EA43
:1008600052734FEAC2025FEA1C1CC0D111F4801F10
:100870000BD141EA00014FF000004FF0004CB6E709
:1008800011F4801F04BF01430020B4F1FD0C88BFA8
:10089000BCF5E06F3FF6AFAEB5EB030C04BFB6EBB3
:1008A000020C5FEA500C50F1000041EB045170BDA6
:1008B0000EF0004E4EEA113114EB5C04C2BFD4EBD3
:1008C0000C0541EA045170BD41F480114FF0000E57
:1008D000013C90E645EA060E8DE60CEA135594EAD3
:1008E0000C0F08BF95EA0C0F3FF43BAF94EA0C0FD6
:1008F0000AD150EA01347FF434AF95EA0C0F7FF44B
:1009000025AF104619462CE795EA0C0F06D152EA9E
:1009100003353FF4FDAE1046194622E750EA410682
:1009200018BF52EA43067FF4C5AE50EA41047FF493
:100930000DAF52EA43057FF4EBAE12E753B94AB963
:10094000002908BF00281CBF4FF0FF314FF0FF30D7
:1009500000F00CB8ADF1080C6DE904CE0BF06EFFA1
:10096000DDF804E0DDE9022304B07047704700BF02
:100970004FF0FF3C06E000BF4FF0010C02E000BF6B
:100980004FF0010C4DF804CD4FEA410C7FEA6C5C4E
:100990004FEA430C18BF7FEA6C5C1BD001B050EAF1
:1009A000410C0CBF52EA430C91EA030F02BF90EADC
:1009B000020F0020704710F1000F91EA030F58BF9B
:1009C000994208BF90422CBFD8176FEAE37040F0FD
:1009D000010070474FEA410C7FEA6C5C02D150EA9B
:1009E000013C07D14FEA430C7FEA6C5CD6D152EA56
:1009F000033CD3D05DF8040B704700BF844610461B
:100A000062468C461946634600E000BF01B5FFF719
:100A1000B7FF002848BF10F1000F01BD4DF808EDE9
:100A2000FFF7F4FF0CBF012000205DF808FB00BFBA
:100A30004DF808EDFFF7EAFF34BF012000205DF814
:100A400008FB00BF4DF808EDFFF7E0FF94BF012061
:100A500000205DF808FB00BF4DF808EDFFF7CEFF62
:100A600094BF012000205DF808FB00BF4DF808EDA1
:100A7000FFF7C4FF34BF012000205DF808FB00BF72
:100A80002DE9F00791E8F807B2E802105B1854EB83
:100A90000C04B2E802104D4156EB0C06B2E802100D
:100AA0004F4158EB0C08B2E8021059EB01095AEB20
:100AB0000C0A80E8F80780410130BDE8F007704774
:100AC0002DE9F00791E8F807B2E802105B1A74EB21
:100AD0000C04B2E802108D4176EB0C06B2E802106D
:100AE0008F4178EB0C08B2E8021079EB01097AEB40
:100AF0000C0A80E8F80780414042BDE8F0077047E3
:100B00002DE9F007524290E87800B1E880071740DD
:100B1000DB1918EA020854EB080419EA020955EB3C
:100B200009051AEA020A56EB0A0678C090E878002E
:100B3000B1E8800717407B4118EA020854EB08042B
:100B400019EA020955EB09051AEA020A56EB0A06E8
:100B500078C080410130BDE8F00770472DE9F0070B
:100B6000524290E87800B1E880071740DB1B18EA92
:100B7000020874EB080419EA020975EB09051AEA80
:100B8000020A76EB0A0678C090E87800B1E88007A0
:100B90001740BB4118EA020874EB080419EA02097D
:100BA00075EB09051AEA020A76EB0A0678C080415D
:100BB0004042BDE8F00770472DE9F00152424FF086
:100BC000040890E8300091E8C000A31B1340E41A29
:100BD000F618EB1B1340ED1AFF1830C0C0C1B8F176
:100BE0000108EED1BDE8F001704700BF00B592ECFE
:100BF000080AB1E8805707EE101A53EC102A56EC99
:100C0000114AA7FB0251A8FB020BE7FB6310E9FBAB
:100C100062B041EC145AA8FB0351EAFB6201E7FB06
:100C200064B5E7FB6605E8FB661505EE10BAA9FB9F
:100C300003B6EAFB6316ECFB6356E8FB640BE9FBC7
:100C4000641BEAFB645BECFB646B05EE900AACFB97
:100C5000023012EE104AEEFB6250E9FB6460EAFBE0
:100C600064B0E7FB6431E8FB645112EE904AE8FBA4
:100C70006461E9FB64B1EAFB640106EE103AA7FB8C
:100C8000043213EE104AE7FB6462E8FB64B2E9FB4E
:100C90006402EAFB641211EE904AE9FB6453EAFB3A
:100CA000646313EE904AE7FB64B3E8FB6403E9FB7B
:100CB0006413EAFB642306EE905A17EE109A99E843
:100CC000000610EE108AA9FB0854EAFB68B412EE85
:100CD000108AECFB6804EEFB6814E9FB6824EAFB6D
:100CE000683410EE908AEEFB6865E9FB68B5EAFBB4
:100CF000680512EE908AECFB6815EEFB6825E9FBAF
:100D00006835EAFB684507EE106A11EE108AAEFB03
:100D10000876E9FB6806EAFB681613EE108AECFB1E
:100D20006826EEFB6836E9FB6846EAFB685611EE7A
:100D3000908AECFB68B7EEFB6807E9FB6817EAFBF3
:100D4000682713EE908AECFB6837EEFB6847E9FBF7
:100D50006857EAFB686700BD2DE9F04F07EE900A7F
:100D6000FFF744FF17EE908A07EE90BAA8EC084A06
:100D700088E8FF00BDE8F08F00B591E89857A3FB25
:100D80000352A3FB0401E3FB6420E3FB671042EC86
:100D9000145AA3FB0752E3FB6802E4FB6415E3FB70
:100DA0006805E3FB6925A4FB07B6E3FB6926E3FBC3
:100DB0006A56E4FB670BE4FB682BE3FB6A5BE3FB2F
:100DC0006C6B40EC151AA4FB0810E4FB6950E3FBC4
:100DD0006C60E3FB6EB0E7FB6721E4FB6951E4FB69
:100DE0006A61E3FB6EB1E4FB6E0106EE102AA7FB1D
:100DF0000832E4FB6A62E4FB6CB2E4FB6E02E7FBE0
:100E00006E12E7FB6853E7FB6963E4FB6CB3E7FB37
:100E10006C03E7FB6E13E8FB6E2306EE905AA7FB0C
:100E20000954E7FB6AB4E7FB6C04E8FB6C14E8FBCD
:100E30006E24E9FB6E34E8FB6865E7FB6AB5E8FB06
:100E40006A05E8FB6C15E9FB6C25E9FB6E35EAFBEE
:100E50006E4507EE106AA8FB0976E8FB6A06E9FB17
:100E60006A16E9FB6C26EAFB6C36EAFB6E46ECFB85
:100E70006E56E8FB69B7E9FB6907E9FB6A17EAFB0D
:100E80006A27EAFB6C37ECFB6C47ECFB6E57EEFB1A
:100E90006E6700BD2DE9F04F07EE900AFFF76CFF7B
:100EA00017EE908A07EE90BAA8EC084A88E8FF008F
:100EB000BDE8F08F30B44FF0000310F8014B11F88B
:100EC000015B013A84EA050443EA0403F5D1A3F186
:100ED00001034FEAD37030BC704700BF4FF00003EE
:100EE00010F8012B013943EA0203F9D1A3F1010300
:100EF0004FEAD370704700BF30B411F8014B12F8BD
:100F0000015B6C4000F8014B013BF6D130BC7047EF
:100F10002DE9F00791E8F807B2E802105B1854EBEE
:100F20000C04B2E802104D4156EB0C06B2E8021078
:100F30004F4158EB0C08B2E8021059EB01095AEB8B
:100F40000C0A8941B3F1FF3374F1FF3475F1FF35B9
:100F500076F1000677F1000778F1000879F10109D0
:100F60007AF1FF3A51F100015B184C414D4156F1C5
:100F7000000657F1000758F1000859EBD1795AEBF8
:100F8000010A80E8F807BDE8F00770472DE9F0078F
:100F900091E8F807B2E802105B1A74EB0C04B2E8AF
:100FA00002108D4176EB0C06B2E802108F4178EB0F
:100FB0000C08B2E8021079EB01097AEB0C0A8941BE
:100FC0005B184C414D4156F1000657F1000758F1AE
:100FD000000859EBD1795AEB010A80E8F807BDE81F
:100FE000F007704718EB040859EB05095AEB060A9D
:100FF0005BEB070B5FF0000C4CF1000C18EB0508E5
:1010000059EB06095AEB070A5BEB070B50EB0C0098
:101010005FF0000C51EB0C0152EB0C0263414CF100
:10102000000CB8EB070879F100097AF1000A7BEBB4
:10103000040BA841B141A241B3416CF1000CBBEBE0
:10104000050BB041B941AA41BB416CF1000C6FEAFC
:10105000EC74B8EB040879EB04097AEB040A7BF131
:10106000000B70F1000071F1000172EBD472A3412A
:101070006CF1000C18EBEC7859EBEC795AEBEC7A4C
:101080005BF1000B50F1000451F1000552EBDC76EE
:1010900053EBEC774CF1000C18EBEC7059EBEC7166
:1010A0005AEBEC725BF1000354F1000455F10005BA
:1010B00056EBDC7657EBEC77704700BF2DE9F04F2D
:1010C00007EE900AFFF792FD59EC168A17EE10AA68
:1010D000FFF788FF59EC148A5BEC15AAFFF782FF33
:1010E00017EE908A88E8FF00BDE8F08F2DE9F04FF9
:1010F00007EE900AFFF740FE59EC168A17EE10AA89
:10110000FFF770FF59EC148A5BEC15AAFFF76AFF32
:1011100017EE908A88E8FF00BDE8F08F4FEA410C97
:101120007FEA6C5C02D150EA013C0AD14FEA430CE1
:101130007FEA6C5C02D152EA033C02D14FF000001E
:1011400070474FF0010070474FEA410212F500125C
:1011500015D211D56FF47873B3EB625212D94FEAFE
:10116000C12343F0004343EA505311F0004F23FAE8
:1011700002F018BF404270474FF00000704750EA3D
:10118000013005D111F0004008BF6FF000407047FA
:101190004FF00000704700BF1FB5144C207A8DF847
:1011A0000100E0798DF80000A079ADF804006079C5
:1011B000ADF80200684606F04DF808B1A72110E02E
:1011C000E068029002A806F05BF808B1AB2108E0E5
:1011D00007480068039003A80EF0A9FF002803D079
:1011E000AF21032000F0DCF81FBD0000000E00203E
:1011F000A814000010B528B1142204490FF0D8FD3E
:10120000002010BD6FF0150010BD0000CC140000D0
:1012100070B56FF02C03B8BB1E4C607808B1981104
:1012200070BD01B36FF01505AAB11B48891E0629D0
:101230002BD2DFE801F0030616192A1C1178417041
:1012400017E0917839B1D17829B111781B2902D3EF
:1012500051781B2901D2284670BD1168C0F80510CD
:1012600007E01168C16004E01178817001E0118825
:1012700041820122084900200BF038FCB0F5803F84
:1012800005DB6FF00B0070BDFFE71846FBE701219F
:10129000A170F8E728000020000E002010B5074CD0
:1012A000607820B106F0CAFA20780BF0E7F900F078
:1012B00087FD00F05FFE0020607010BD2800002058
:1012C00070B50C46050002D00CB1600702D06FF07B
:1012D000150070BD00F020F9A8B128460BF094F974
:1012E0000A4D00220A49287020460BF0FFFB0FF040
:1012F00038FB0021287806F08BFAFFF74DFF01201C
:101300006870002070BD4FF0FF3070BD28000020D5
:10131000000E002030B589B004000CD00BF01AF993
:101320004FF0FF3520B10AF0ADFFB0F5FA7F05D9D7
:10133000284609B030BD6FF01500FAE7134D144888
:101340006C6000F00BFA00206870A8700146202243
:1013500068460FF0A7FD20220E4968460FF028FDD1
:10136000202269460C480FF023FDEFF3108472B67B
:1013700000F034FD094800F009FE18B1C521032032
:1013800000F00EF804B962B60020D2E72800002071
:1013900099110000AC140000000E0020451500005B
:1013A0000EB572B6154A5568DDB1002203466E4689
:1013B0000A2403E0B0FBF4F0521CD2B20028F9D1A9
:1013C000B0540AE0D8B2B0FBF4F7B3FBF4F304FB7B
:1013D0001700521ED2B23030B054002AF2D130463B
:1013E000A847BFF34F8F06480168064A01F4E06141
:1013F00011430160BFF34F8F00BFFDE728000020BD
:101400000CED00E00400FA05064810B5817840783C
:10141000014302D04FF0FF3010BD06F01FFA00204C
:1014200010BD000028000020064810B581784078E3
:10143000014302D04FF0FF3010BD05F06DFF0020DA
:1014400010BD000028000020064810B581784078C3
:10145000014302D04FF0FF3010BD0FF007F800201D
:1014600010BD000028000020064810B581784078A3
:10147000014302D04FF0FF3010BD06F001FA00200A
:1014800010BD000028000020064810B58178407883
:10149000014302D04FF0FF3010BD0EF0F7FF0020E7
:1014A00010BD000028000020010000000001010024
:1014B000001B1B03020000004C1D000000001F0069
:1014C000000000000000000000000000D80C2D2FDC
:1014D00036AEE25C8026804C3F4D16535096C77363
:1014E000054A10B5526812B1BDE81040104792216C
:1014F0000420FFF755FF0000200E0020054A10B51C
:10150000926812B1BDE81040104798210420FFF7FF
:1015100047FF0000200E00200548016829B14168FE
:1015200019B1806808B101207047002070470000A1
:10153000200E002002490DC881E80D0000207047F0
:10154000200E0020F8B5124C0026256811E0009806
:10155000022802D003280CD106E0206810B1002038
:10156000266005E028210CE0206868B10120266093
:10157000A847684600F0D0FC0028E8D0052805D030
:1015800035210420FFF70CFF2D21FAE7F8BD0000FC
:10159000300000202DE9FC41254E0546001D06F1D6
:1015A00044073060387858B1BA783C46791C2846F0
:1015B000921C0FF0FDFB002020700420BDE8FC8190
:1015C0001B4801F07FFE0446022804D0042C07D0FB
:1015D000082C27D02AE0164928460BF00AFB25E004
:1015E0003078082804D105213E200BF0D4FA60B1F0
:1015F0000F4928460BF062FB0028D3D0A978287841
:101600000BF0C9FA0028CDD010E0B088ADF800008A
:1016100001A968460BF03DFE0028C3D0A721082091
:10162000FFF7BEFE024928460BF011FB2046C5E736
:101630002C0E002070B50A7882703AB3012A25D8A2
:101640001323037000230AE001EB430400EB43057E
:10165000A678EE706488240A5B1C2C71DBB293427E
:10166000F2D300230BE000BF01EB430500EB430482
:101670002E796671AD882D0A5B1CA571DBB2934291
:10168000F2D3012101EB8200C0B270BD002070BD19
:10169000402803D2401EC1B2054805E0FF2805D00E
:1016A0004038C1B2024808300BF0EABC0120704754
:1016B0003C000020401EC1B201480BF0E1BC00001C
:1016C0004C00002010B5074A0168064B9161406844
:1016D000D0611C681832A14311605968884350607A
:1016E00010BD000034000020064A01689160406887
:1016F000D060083241F48C211160034908435060E6
:101700007047000034000020F807400202490268D8
:101710000A614068486170473400002007484FF074
:10172000FF3100220160C90C416000F108011F2057
:101730000A604A600831C1E9000270473C0000209D
:1017400010B5FFF7EBFF0EF00AFE044602480068F2
:1017500000B18047204610BD5400002001490860B8
:1017600070470000540000200221018041800021C8
:101770000171D821417142F60C51C180014981604B
:10178000002070472F36AEE210B5022804D340F295
:1017900003211720FFF704FE0149085C10BD00007B
:1017A000740F0020F8B5050000950DD000260878CC
:1017B00049780446A14200D90C46AA0706D04FF446
:1017C000E5711720FFF7ECFD0126F0E7124F3870A6
:1017D00079703146684600F0D3F800210B46009836
:1017E000C01C20F00300009066B907EB8102D060B6
:1017F000002005E0D2F80CC04CF82030401CC0B2EC
:10180000A042F7D30098491C00EB8400C9B20090B5
:101810000229E4D3401BF8BD740F002070B50446C4
:10182000857900F0E9F80C4AE17902EB85020EE0D7
:10183000D36853F8213043B1481CE071A180D068CF
:1018400050F821002060002070BD491CC9B28142BF
:10185000EED3E171052070BD740F0020F0B421B10A
:10186000012902D0F0BC002070470F4A00252B460A
:101870004FF6FF7402EB8106575C0AE05A19D6F85E
:101880000CC092B25CF822C0BCF1000F04D05B1C0B
:101890009BB29F42F2D8224602801046A242E1D07B
:1018A000F0BC00F035B80000740F00202DE9F041C5
:1018B0000646A0F57F400C4643F20207FF3820D0D1
:1018C000022C02D30720BDE8F081304600F048F832
:1018D000050016D00C48294650F824203046904781
:1018E0000A48002100EB8407F86840F826102046DB
:1018F00000F078F80246294678680BF058FF00207F
:10190000E1E73846DFE70000101A0000740F0020FE
:1019100070B50E4605460BF084FF58B10F4800EB3A
:101920008604E06850F8250038B14FF4C5711720DF
:10193000FFF736FD40F28911F9E7606800280BD007
:10194000304600F04FF8014660680BF0D8FE0028E2
:1019500002D0E16841F8250070BD0000740F00203E
:1019600070B50C4605460BF05CFF002805D0034817
:1019700000EB8400C06850F8250070BD740F002093
:101980002DE9F843164E8846054600242868C01CF9
:1019900020F003002860204600F024F8315D484321
:1019A000B8F1000F01D0002200E02A680146009241
:1019B00032B100274FEA0D000BF0D2FE1FB106E056
:1019C00001270020F8E706EB8401009A4A602968A5
:1019D000641C0844E4B22860022CD7D3BDE8F88325
:1019E000740F0020034931F810004FF6FC71C01C41
:1019F000084070470C1A000003490878497888426B
:101A000000D2084670470000740F0020F802180149
:101A100001F50000ABEA00002DE9FF4F244C06461B
:101A200081B020689A46934658B1017AB14203D9F1
:101A3000406850F8260040B143F2020005B0BDE80E
:101A4000F08FA5211820FFF7ABFC194602980BF088
:101A50000BFF804658460E990BF0FCFE054608EB3E
:101A60000500001D87B22068A146394600680BF0CA
:101A700046FE04001AD0678025802946201D0E9D51
:101A800007465A46092300950BF0B3FD20884146CE
:101A900038440A23029ACDF800A00BF0AAFDD9F829
:101AA0000000406840F826400020C7E70420C5E752
:101AB0005800002070B5144C23688BB1197A81420C
:101AC00012D95A6852F8201071B1002542F82050FE
:101AD0004A8818680BF06BFE216800200A7A0CE037
:101AE000C6211820FFF75CFC43F2020070BD4B6872
:101AF00053F8203033B9401CC0B28242F7D808688E
:101B00000BF04AFE002070BD580000202DE9F04186
:101B10000D46040090464FF0000606D00027A007AF
:101B200005D086211820FFF73BFC0127F7E7CDB150
:101B3000114600200BF014FE0C3000EB85068FB927
:101B40000A4F04F10C00AA003C602572606000EBB3
:101B500085002060002160680FF0A4F941463868D4
:101B60000BF0FEFD3046BDE8F0810000580000207B
:101B700070B5084D286800280AD0002404E02046EB
:101B8000FFF798FF641CE4B22868007AA042F6D8F8
:101B900070BD000058000020094910B502460968D0
:101BA000002049B10B7A934205D9496851F82210B7
:101BB000002900D0081D10BDEC211820FFF7F0FB14
:101BC000580000200A4910B502460968002059B1A2
:101BD0000B7A934207D9496851F82210002902D0A4
:101BE00031F8040B084410BDFA211820FFF7D8FB88
:101BF0005800002070B51E4B456804460022A1B174
:101C000001206070588881085FF0000004EB4003F9
:101C100004EB80061A83198400FB015373602318B8
:101C2000401C1A750428F1D370BD62705FF000008B
:101C300004EB40010A830A8404EB80014A60211806
:101C4000401C0A750428F3D35888B0F5FF7F01D2F1
:101C5000460800E0FF260BF07BFE65602084291813
:101C6000A1606684E560A0842161E68470BD000007
:101C70005C0000202DE9F04158B100251144244EAC
:101C8000CCB200273470810705D04E210920FFF720
:101C900087FB0125F2E71F2B04D84FF6FF7101EAFD
:101CA000830109E05900FF2B0CD903F1FF02B2EBCD
:101CB000430F00D2114689B24FF6FC72C91C114085
:101CC00035B107E07C22B2EB430FF4D37C21F2E77D
:101CD0007060718004EB840207EBC2030022766817
:101CE0004FF0010C0DE04DB902EB820700EB030E43
:101CF00006F837C006EBC707C7F804E0521C0B44D0
:101D0000D2B2A242EFD3DB1D23F00700BDE8F08181
:101D10005C00002070B5104A00205168127814E071
:101D200000EB800311F833306BB100EB800011EB56
:101D3000C0040CD00025A57001212046FFF75AFFF2
:101D40002570204670BD401CC0B29042E8D3A92146
:101D50000920FFF725FB00005C000020044810B5B7
:101D6000408884080BF0F4FD844200D3204610BD67
:101D70005C00002030B50D4901204860821EC1F88A
:101D800008230B4988600023C1F80032C1F80823FA
:101D9000084C2360251D28608860C1F80823236053
:101DA000286006490448086030BD000000E000409B
:101DB00000F0004000F500400000F63F08F501404B
:101DC00010B5FFF7D7FF0BF09AFE034901480860F2
:101DD00010BD00000000F63F08F5014010B5FFF708
:101DE000C9FF0BF08CFE00F087F805490348086036
:101DF00000F0B8F8BDE8104000F0DCB80000F63F95
:101E000008F501402DE9F84F824638480EF0EEFE05
:101E1000DFF8D8B028B101260BF10100FF210170D5
:101E200000E000264FF48075314C4FF000082F1D64
:101E300001216160C4F80081C4F80481C4F804A5DC
:101E40002160DFF8B0901CE0D9F80000C00618D57A
:101E50000E200BF063FEEFF31080009072B60321AA
:101E60002046C4F8041329460BF065FE30B9394604
:101E700020460BF060FE08B90EF04FFF009800B945
:101E800062B6294620460BF056FE28B93946204650
:101E90000BF051FE0028D7D0394620460BF04BFE00
:101EA0000028C5D106BB9BF801108DF800100099E1
:101EB00000919DF8001009B1012500E000250BF10B
:101EC000010080F800800320C4F80803C4F80481EE
:101ED000C4F800810E200BF021FE04480EF09DFE98
:101EE00015B11120BDE8F88F0020FBE75C0300204E
:101EF00000E0004010ED00E010B506480EF089FE4D
:101F000018B127211D20FFF74BFA0248002141702C
:101F100010BD00005C03002070B511490A68EAB1E9
:101F200000231D4601244A68521C4A60092A00D336
:101F30004D600E7904FA06F20E6816420BD0EFF3EC
:101F4000108372B60C6894430C6003B962B649689A
:101F50000160002070BD5B1C092BE4D3052070BD1F
:101F600064000020024800210160416070470000C9
:101F70006400002010B5044C2078FF2803D00AF03C
:101F80007DFBFF20207010BD0000002010B5084C24
:101F9000617809B10F2010BD0AF036FB2070FF28D0
:101FA00001D0002010BD73211F20FFF7F9F90000B8
:101FB0000000002001490020487070470000002008
:101FC0000648074A818C5288914204D190F8220039
:101FD00008B10020704701207047000098140020CD
:101FE0004803002001494880704700004803002052
:101FF0000848094A818C5288914209D14FF6FF71F5
:10200000818410F8221F19B100210170012070474E
:10201000002070479814002048030020074810F85B
:10202000221F012907D001210170054803490088BA
:102030008884012070470020704700009814002019
:10204000480300200649074B8A8C5B889A4205D1D9
:1020500091F8222012B101600120704700207047E2
:10206000981400204803002009498A8CA2F57F4378
:10207000FF3B02D00021016007E091F822200449D3
:10208000012A02D001600120704700207047000043
:102090009814002001490880704700004803002080
:1020A0000549002081F822004FF6FF70888403491B
:1020B00008804880704700009814002048030020E2
:1020C00005498A8C824205D1002081F822004FF612
:1020D000FF70888470470000981400200A4A10B1ED
:1020E000012807D00EE0507860B1D2F802000860F5
:1020F000D08804E0107828B19068086090898880C2
:1021000001207047002070475E030020084A012329
:1021100038B1012804D113700868906088889081D4
:10212000704753700868C2F802008888D0807047F2
:102130005E030020064910B1012802D005E048786E
:1021400000E0087808B101207047002070470000C7
:102150005E0300200149087770470000DA0D002077
:1021600001488078704700006C0000200148C0786A
:10217000704700006C00002070B50C46054600F06A
:102180001FF918B1D0212720FFF70AF903480121D0
:102190000CF0FBF80248C0E90B5470BDB80D0020EC
:1021A0006C00002001490120487170476C0000203C
:1021B0002DE9F84F5B4D0A9C2E78002E6BD1002A3A
:1021C00069D0002B67D0002C65D005F11406C5E955
:1021D0000F0186E81C0000276F712F71AF706F70C0
:1021E000EF70AF81EF8100F03DF9064600F034F961
:1021F000044605F0A7FF05F0FFFC94F96E0006F019
:1022000025F8E06906F008F9606906F0FBF896F831
:10221000330006F031F905F13C00406890F81A02ED
:1022200008B105F00FFF94F86B10012005F04EFE89
:10223000002870D03C4805F0B5FE2088FFF7C2FCAE
:1022400068632088FFF7A8FC06F18802A86392E87B
:102250000C11DFF8D89089E80C11D6F89820C9F84D
:102260001920D6F89C10C9F81D1000F033F901466A
:10227000208FBA460BF0E6FDA18E814200D20846BF
:10228000A871A84694F86B10E08F96F82370A58F7C
:10229000082904D102E040F2451140E004210BF08E
:1022A000D1FD0FB9001D80B2854200D22846C5B2CB
:1022B00088F8075088F8085096F82300D04690B167
:1022C000012789F81870D6E92012C9E9041294F898
:1022D0006B000BF0BCFC03462A4614493846CDF887
:1022E000008005F0F5FB012000F054FB1048006869
:1022F000032812D00B2810D00C480E2200214A309F
:102300000EF0D0FD0948B18A4A3041802188018011
:1023100096F833100171BDE8F88F40F202212720B2
:10232000FFF73EF86C000020982B0000900D002075
:10233000501500402DE9FC418846074600F092F810
:102340001A4C0546B807616A4E7816D5A06A30B3B4
:102350006289D21C0EF02CFDA06A6062694601AA57
:10236000A06B0BF0C3F800980BF076F8C8F80000EB
:1023700031460122A06B0BF026F8F8070DD0D5E905
:1023800020011835401C41F10001C5E91A0115F87A
:102390001809012808D001202876BDE8FC8140F208
:1023A00066412720FEF7FCFF0020F5E76C000020C7
:1023B0000248C089C0F38020704700006C000020F4
:1023C0000448007808B10C207047034900200877C2
:1023D000704700006C000020DA0D00200C4810B59A
:1023E000017849B100F13C010078022808D040F2A0
:1023F0001E212720FEF7D4FFBDE8104000F0D8B919
:102400004868D0F83002BDE8104005F0D3BD0000A8
:102410006C000020F8B5002605464E701D20094FBF
:102420000C4608702E720E223946201D0EF0C0FC9C
:10243000287A8DF80000009800909DF80000002890
:10244000F0D1F8BDE80D0020024A9389034393813F
:10245000526910476C000020014840687047000036
:10246000A80000200148406880307047A800002084
:10247000014A0021526910476C00002070B50546E2
:10248000012918D8124CA1698847A0B1207990B9C8
:10249000E5B904F110000178C80605D4E06A0078B7
:1024A000C00601D4012000E00020A26A2AB9628996
:1024B0001AB1C90601D4012070BDA1898A0703D5CC
:1024C000226AD278022A01D00843F4D1002070BDDC
:1024D0006C00002010B5FFF7BFFF0446FFF7C2FFF6
:1024E0000246417F1648252910D026290ED0927F1A
:1024F000252A0BD020290DD021290BD0232A0FD03B
:1025000094F86A00042800D1082010BD406890F8B3
:10251000CE120EE0232A03D0406890F83E0105E079
:10252000416891F83E0191F8631008400BF085FB7B
:10253000014694F86A00BDE810400BF096BB00001D
:10254000A80000202DE9FF5F8B468146FFF78AFF38
:102550000026664C07468DF80860039601962078A1
:102560003546022804D040F2EA412720FEF718FF42
:10257000A07B400606D44020FFF77AFFE08940F0B8
:102580004000E08197F82300B9F1000F3AD080B104
:1025900005F06CFB05F046FB58B9606A417841B123
:1025A0000078397EC0F3C000884202D101206070FB
:1025B00097E0606A4178618121B1A06B0BF06CF803
:1025C000A06200E0A562E08940F48070E081606A6A
:1025D000F97D0078C0F38000884207D003A800F09E
:1025E0008BF9E08940F48060E08100E00126606AB8
:1025F000397E0078C0F3C00088420DD102A800F0F7
:1026000031F909E008B105F02BFBA078401CA0705F
:10261000E08940F40070E081DFF8D0A097F8220054
:102620000AF13C0A90B1FFF717FF31490D76D7E95F
:102630001E23C1E9042390F86A000BF008FB03464F
:10264000FB222B492846009505F042FA4FF000087E
:10265000BBF1000F04D1A1780120FFF70FFF20B1DB
:1026600005F0BCFE4FF0010802E0002000F0D0F9B8
:102670009DF8080018B101A90220FFF75BFE1C4875
:10268000BA8A4A303EB11AB9C2880AB9028912B16F
:102690004289521C4281B9F1000F08D0C188491CFF
:1026A000C1801248A5703C3001F060F902E0018958
:1026B000491C0181039840B10AF0CEFEDAF80410FB
:1026C000401C05720E220BF0DEFE019830B1DAF8E4
:1026D000041005722A2201980BF0D5FEB8F1000F04
:1026E00001D000F065F8BDE8FF9F00006C000020FD
:1026F000900D00202DE9F84388468146FFF7B2FE91
:10270000294D04462878012804D040F2754127203D
:10271000FEF746FE207C0027012628B12774002101
:102720000420FFF791FEA674296A0878C043800749
:1027300009D1A07D88BB0220FFF786FE286A0078B9
:10274000C043800729D0286A407810B10220A075C4
:1027500000E0A67594F8230098B1FFF77DFE1349B9
:102760002D7A0E76D4E92023C1E9042390F86B007A
:102770000BF06DFA03462A460C493046009705F0E7
:10278000A7F938EA090004D000210846FFF776FED1
:1027900028B1BDE8F84300F00BB80320D7E7BDE847
:1027A000F843002000F0F6B86C000020900D0020E7
:1027B00010B505F001FB05F01FFA0D4CE089FFF79D
:1027C00057FE0C48007F58B10A490E2201F10E0055
:1027D0000EF0EEFA0748242207491D300BF067FE81
:1027E000E2692179607890470020207010BD0000D8
:1027F0006C000020DA0D002015240000084810B5F8
:102800000078022804D040F24D212720FEF7C8FDB1
:10281000044901200873BDE81040FFF7C9BF00005C
:102820006C000020DA0D002030B404460C48007A19
:102830000BB1001DC0B23AB9FF2805D194F86B2046
:1028400094F86A309A4209D021B194F86B1030BCE8
:1028500005F0E8BDFF2094F86A10F8E730BC704737
:102860006C0000202DE9F0410746FFF7FBFD214CED
:1028700005460126616A087800F0030001280CD0A3
:1028800002280AD003281BD12E74E08940F400608E
:10289000E0810120FFF7D8FD12E0487880B1E1899E
:1028A00041F40061E181A16A002918D0FB2818D801
:1028B000607920B1BDE8F0412020FFF7D9BD3E701E
:1028C000287E012812D02E76606A4078002806D033
:1028D000F5E92001401C41F10001C5E90001BDE816
:1028E000F081207940F010002071F8E70020287670
:1028F000EAE700006C00002070B50546FFF7B2FD66
:102900000446807D00282DD002280CD11B48294682
:10291000406B0AF030FD30B3D4E91E01401C41F198
:102920000001C4E91E010025A575A07C20B1A57495
:1029300000211020FFF788FD607C70B16574FFF7FF
:1029400057FB98B100210820FFF77EFDD4E91E0156
:10295000401C41F10001C4E91E01E07D01280AD0BC
:102960000120E07570BD40F2E33101E040F2FA3140
:102970002720FEF715FDE57570BD00006C000020F6
:1029800003480078002801D0FFF712BF704700000D
:102990006C0000202DE9F0410646FFF75DFD804602
:1029A000FFF760FD184C05463246E06A606295F814
:1029B000233001214046FFF737FF95F82300002719
:1029C00070B1206B05F064FC104801210176D5E957
:1029D0002012C0E90412216B606A05F0CBF804E014
:1029E000606A05F055FC05F007F916B9384605F0A0
:1029F00005FB002198F86A20084605F0D1FC02206A
:102A00002070BDE8F08100006C000020900D0020D7
:102A10002DE9FC470446FFF725FD0546FFF71CFDA1
:102A200000278DF800700646DFF8649195F8233092
:102A300022463946FFF7F8FEA87D4FF00108A9F1BC
:102A4000200440B1012820D002282FD003283BD0F9
:102A500040F2FF2157E0A0795021ADF804008853DF
:102A60004846FFF7EFFA30B18020216AFFF7ECFC0F
:102A700085F811802CE06A4601A9606B0BF0FFF825
:102A8000206210B195F85B1011B1424820621FE03E
:102A90009DF8001021B90780877001210BF075FCAB
:102AA000BDF80410206A0BF0F8FB11E0B6F85000F6
:102AB000ADF804006A4601A9606B0BF0E0F82062F3
:102AC00030B940F2E9211EE04846FFF7BBFAC0B139
:102AD000206A0823017801F0F7010170EA7D03EA1A
:102AE000C202114301F0FB0101702A7E042303EAB4
:102AF0008202114301F0EF010170C943890705D03B
:102B000007E040F2F2212720FEF74AFCC0780228B5
:102B10000FD0606B0AF02DFD08B101210AE0206A98
:102B20000078C043800704D0FFF74AFA80F0010123
:102B300000E00021206A027842EA0111017095F854
:102B4000221081B1417871B1206B05F0A1FB1148D1
:102B500028380776D5E91E12C0E90412216A206BD5
:102B600005F008F803E005F093FB05F045F896F84A
:102B70006B200121002005F013FC84F80380216AFA
:102B80000A8822828978A17484F80080BDE8FC87D5
:102B90008C000020B80D0020FD2700004525000016
:102BA000F52600008129000000487047911600209A
:102BB00004498A78824203D9084490F84301704757
:102BC00000207047BE14002004498A78824203D94D
:102BD00001EB00108330704700207047BE140020C6
:102BE000054A01EB410102EB41010268C1F80B21EA
:102BF0008088A1F80F017047BE14002004498A782C
:102C0000824203D901EB0010C01C704700207047BE
:102C1000BE14002010B540F2D312002108480EF077
:102C200041F90822FF2107480EF03CF90548002130
:102C3000001F017041704FF46171418010BD0000B0
:102C4000BE140020500300200B4B10B59C7884422A
:102C50000FD9184490F8030103EBC00090F85331EA
:102C60000B70D0F854111160B0F858019080012019
:102C700010BD002010BD0000BE14002007498A7856
:102C8000824209D9084490F8030101EBC00090F892
:102C90005A0100F00100704700207047BE14002068
:102CA00001484088704700004C03002005498A789D
:102CB000824203D9084490F83B0108B100207047D4
:102CC00001207047BE14002070B50D46064600F086
:102CD000C1F8104C102807D004EBC00191F85A112C
:102CE000C90701D0012070BD6178082910D21028D1
:102CF00008D004EBC000012180F85A116078401C14
:102D00006070EFE701222946304600F087F8F5E7CA
:102D1000002070BDBE14002070B50B4D2878401EF9
:102D200044B20AE005EBC40090F85A01C00702D093
:102D3000E0B200F0EDF8641E64B2002CF2DA034950
:102D40000020487070BD0000BE1400204C0300201D
:102D50002DE9F04100242546184E29E006EBC50771
:102D600097F85A01C00721D0284600F043F80346DF
:102D7000FFF744FF01460020102B09D0F21892F80B
:102D80003BC1BCF1010F02D092F84B2102B10120EE
:102D9000401E01420AD10A4807F5AA710355204690
:102DA000641C97F85321E4B205F020FC6D1CEDB2D1
:102DB0003078A842D2D8BDE8F0810000BE140020CF
:102DC000500300200246094810B500780B4658B160
:102DD0000748817841B10BB1C01C01E00448833041
:102DE00004F0D0FD012010BD002010BD4C030020D8
:102DF000BE140020084910B5034600208A7806E07A
:102E00000C1894F803419C4204D0401CC0B282428A
:102E1000F6D8102010BD0000BE14002070B50C4B79
:102E200004461878451C1D70102803D3462128201D
:102E3000FEF7B6FA03EBC0030D68C3F85451898856
:102E4000A3F8581183F8534183F85A2170BD00004C
:102E5000BE140020F0B51A4C0346002025782AE065
:102E600004EBC0020F7892F854C192F8536187EADC
:102E70000C075E403E444F7892F855C187EA0C0734
:102E80003E448F7892F856C187EA0C073E44CF78CB
:102E900092F857C187EA0C073E440F7992F858C15F
:102EA00092F8592187EA0C073E444F795740F74280
:102EB00004D0401CC0B28542D2D81020F0BD000022
:102EC000BE14002070B50546FFF794FF10281CD1F2
:102ED0000E4C2078401EC0B22070A84215D004EBE2
:102EE000C00204EBC50102F58070D2F85321C1F88D
:102EF0005321D0F85700C1F857012078FFF77AFF27
:102F0000102802D0204480F8035170BDBE14002068
:102F100005494A78521E4A7001EBC001002281F82F
:102F20005A21FFF7CFBF0000BE1400202DE9F04763
:102F3000044600F180054FF0010971B104F1A607C4
:102F40007E1E012925D002294AD003291FD13946E6
:102F50003046BDE8F0470BF0C5B84FF43E72002193
:102F60000DF0A0FF85F825902248E8660720286725
:102F700014F8EC0F20F004002070FE2085F8A60065
:102F80007F2068761C48A8600020C5E90000BDE8E5
:102F9000F0874FF00008A4F8368284F82B8221696C
:102FA00016480A460844B0FBF1F0C4F8C40040F6E5
:102FB000B830A4F8C800638B284600F021F83946E1
:102FC00030460BF08FF80DF084FE18B1606900F008
:102FD00053FB10B184F81A82D9E784F81A92D6E725
:102FE0000169B4F8DA32D4F8D4222846BDE8F047B3
:102FF00000F006B82F49043400E0FCFF7FC3C9018C
:1030000010B50024A0F84C4030F8504F4C43B4FBAE
:10301000F2F420F8104940F27124634302EB0313E9
:103020005B1EB3FBF2F3C381094BB3FBF2F35B1CF2
:1030300083820389634302EB03135B1EB3FBF2F34A
:10304000436003684B43B3FBF2F1016010BD000025
:10305000005A6202024991F900100AF0F4BF000020
:103060006C03002008B57F208DF80000684605F04D
:10307000BDF940B105484078404241B29DF9000099
:103080000AF0E1FF08BD9DF9000008BD6C030020B7
:1030900070B590F8322090F83130012403FB012103
:1030A0002522B1FBF2F302FB131100EBD10280F8F1
:1030B000321001F0070392F8262004FA03F31A42B3
:1030C00004D000BF80F83310002070BD90F830208D
:1030D000B1FBF2F302FB1311491CC9B20023C5185E
:1030E00095F82B208A4212D395F82650002200BF73
:1030F00004FA02F6354201D0491EC9B221B1521C70
:10310000D2B2082AF4D304E002EBC301DAE7891A49
:10311000C9B25B1CDBB2052BE1D31F2070BD0000E0
:1031200070B5491C0023C9B20124C518AA798A4286
:1031300012D395F80150002204FA02F6354201D06C
:10314000491EC9B221B1521CD2B2082AF4D305E0FB
:1031500002EBC300C0B270BD891AC9B25B1CDBB2FE
:10316000052BE2D39D214620FEF71AF9417841B1A3
:10317000C0782B2803D2044A105C884201D1012078
:103180007047002070470000EE0F010010B50122CB
:10319000C1702B2902D2064A525C06E0FF2904D0F6
:1031A00040F275412A20FEF7FBF8427010BD000086
:1031B000EE0F01000449897C490700D408B10020C2
:1031C0007047012070470000880F00200348807C72
:1031D000800701D40120704700207047880F00202D
:1031E0000348807CC00701D0002070470120704751
:1031F000880F00202DE9FE4388469946154604466F
:1032000069460AF07FFDE0BB019E002780367DB154
:103210002046FEF7D7FC04000ED029460AF07BF9C1
:1032200018B11B494988A94208D20020BDE8FE8395
:10323000012086F8240024E0672125E0014602AA47
:1032400020460AF061F902980780877096F82410EA
:1032500009B14FF0020841460BF097F802982A4650
:103260004946C01C0DF0A4FD204629460AF00AF983
:1032700048B168460BF0E4F80198A0F8227286F88D
:1032800024700120D2E77C212B20FEF789F8000072
:10329000880F0020094882B0007A8DF8000000985D
:1032A00000909DF80000002805D10222044903483F
:1032B00002B00BF0E8B802B070470000A00F002089
:1032C000CDE400002DE9F84FDFF89881DFF898A1F0
:1032D00083464FF001090026D8F80400007A8DF8E3
:1032E0000000009800909DF800102A2906D19AF855
:1032F000131019B1BAF8140000287DD000278DF8FA
:103300000060684600F012F99DF800100029F8D11D
:10331000002871D00446007A8DF8000000980090D3
:103320009DF80050A81E302867D2DFE800F018276B
:1033300085218585276F696F6F6F2D6F8521858545
:103340006F6F21858585856F4585856F216F6F85B9
:103350006F2185854F55758585858585854F626883
:1033600012B94FF4D27164E05946204690473CE0D0
:103370006268002AF8D140F2BB115AE06268002A64
:10338000F2D140F24B2154E060685D4680B1048880
:103390002046FEF717FC68B16E700D222A70EC8093
:1033A000A5F80890314685F804900AF04BF957E0EB
:1033B000CE213EE0AE213CE0626822B15946204673
:1033C0009047012711E040F2632132E06268002A51
:1033D000CAD140F26F212CE08BF8016016218BF8E6
:1033E0000010D4F80910CBF804102672212D26D035
:1033F000142D27D0222D01E017E01DE029D02DE06B
:103400006268002AB0D140F2812112E06268002A8D
:10341000AAD140F296210CE01448026822B16068FB
:1034200028B10088594690470220BDE8F88F40F245
:103430009F211020FDF7B4FF40F2BD21F9E7FFF70F
:10344000C5FE08E09BF80E0000F00100FFF7B2FE99
:1034500001E0FFF7C5FE00287FF43EAF002FFBD14F
:103460000420E2E7B40F0020880F0020B000002005
:103470000149087000F0B0B86E030020024901480D
:10348000086070478D340000B000002038B50D0092
:1034900014D0A88000216972FEF77EFB04460AF072
:1034A00015F868B101466A4620460AF02DF8E88012
:1034B00048B1FB280AD94FF4867132E0FC2130E094
:1034C00040F205112DE04FF485712AE000980AF0D2
:1034D00008FF012804D0022802D04FF48E7120E0AA
:1034E00028722868A8B10099EA88C91C0DF060FC10
:1034F000204609F0B3FF78B1204600210AF0A2F877
:1035000068B10948C17C002902D0818A491E8182A4
:1035100038BD40F2231104E04FF4947101E040F211
:103520002D111020FDF73CFF880F002038B5024612
:10353000114B002010705868017A8DF80010009926
:1035400000919DF800500124012D06D0EFF3108169
:1035500072B605685D6011B102E0002038BD62B648
:10356000017A8DF80010009900919DF80030002B31
:10357000F4D1147038BD0000B40F002038B5D0B1BC
:10358000416000F108010A70EFF3108372B6104C2D
:103590000460211F4A684AB1127A8DF80020009A0F
:1035A00000929DF80050012D00D10C600A68106057
:1035B00008602BB105E040F2E2211020FDF7F0FE9B
:1035C00062B604480078BDE8384009F03BB8000016
:1035D000B80F00206E030020084810B5002141619B
:1035E0008161C161016212220DF05CFC034814305C
:1035F00001210173011D4160016010BDA00F002079
:10360000F0B450810C89134694818A89DA81488903
:103610001882CD895D82CE8DAE4208D14D8D854216
:1036200005D10D8E954202D18A8DA24201D0012290
:1036300000E000221A754885588AC88598898885CF
:10364000D8890886F0BC1422014918460AF02FBF19
:103650008BE600005081888A9081C88AD081088BCF
:103660001082488B134650822122024918460AF0E4
:103670000ABF0000C1E60000F0B56FF01F02010CA8
:1036800002EA90261F25A1F5AA4054380DD0A1F5D5
:10369000AA40553809D0A1F52850AA3805D0A1F57F
:1036A0002A40AA3801D0012000E000200022134661
:1036B0004FEA020482EA0107FF431F437F1C0FD039
:1036C00006F00107520842EAC73205F001075B081D
:1036D00076086D08641C43EAC733162CEAD3F0BDA4
:1036E0000020F0BD10B504480BF04EF80248BDE8CC
:1036F000104008300BF048B8B4000020014800F03A
:1037000009B80000B4000020014800F003B8000030
:10371000BC00002010B5D0E90021094B094C5343EF
:103720005443514081EAB21282EA41224FEAF14108
:10373000C0E9002143EAD46303EB8303184610BDBC
:103740006037EFC6BB79379E10B54068002290F80D
:103750008C308030091DDB0701D0012010BD0C79B1
:103760000B6809490B4004F00701C3660167A0F824
:10377000582090F85A10491C80F85A10C16841F03E
:103780000101C160002010BD2F49043710B5041D90
:1037900004F0C8F8034A01F007011040206061609E
:1037A00010BD00002F4904372DE9F8430378406825
:1037B0000F1D00F1800500F5A57406464FF00008C6
:1037C0006A7F072128460AF0C7FAB0B13868154A5F
:1037D0003979104001F00701E866296785F85680BD
:1037E00085F81D8094F8681040468DF80010009907
:1037F00000919DF8001091B902E00120BDE8F88326
:103800003188A4F86A1084F869003968E16679683B
:1038100021670822044904F160000AF034FE002008
:10382000ECE700002F490437F5E8000070B50D1DE6
:10383000446804F077F8064A104001F0070294F853
:10384000EC10014061F3070028606A6070BD000061
:103850002F490437416882B001F5A57091F8B22173
:103860008DF80020009A00929DF80020002A0BD1CC
:103870000988A0F86A101A2180F869100822034903
:10388000603002B00AF0FFBD02B07047F5E80000FA
:1038900070B544680D46037894F89D208034002666
:1038A000082120460AF058FA20B9207B800701D56C
:1038B000012070BD94F85D00800719D428460AF0F5
:1038C0007EFD84F8670035F8050FA4F86800688865
:1038D000A4F86A0094F85D0040F0020084F85D00EE
:1038E000C00709D00322114904F15E000AF0DFFD90
:1038F00094F85D00C00710D1E068810703D54F211F
:103900004020FDF74DFD40F00200E06094F85A00C1
:10391000401C84F85A00A4F85860607F012802D146
:10392000667784F85660002070BD000023E900002F
:10393000074900F500600013097840B2494249B2D6
:10394000084400F30700002800DC0020C0B27047E4
:10395000C4000020044A9268C2F580534B4342439E
:1039600003EB223070470000C4000020F8B5446823
:10397000064604F1800500F07FF894F8281001292C
:103980001AD1002818D0706890F852118DF80010E4
:10399000009900919DF8001000F5A57000290BD149
:1039A00021884181697E0173A97E4173BDE8F84099
:1039B0001F2202490AF067BDF8BD0000C5E90000FA
:1039C00000F500610D4A10B500F500600913001301
:1039D0004BB292F900404042002140B2A34202DAC9
:1039E00092F9021005E092F90140A34204DD92F938
:1039F0000310084400F30701084610BDC40000206E
:103A00002DE9FC4100224A70A0F5FA750A70A0F574
:103A1000BA7495F86B000BF0F0FF0646A068FFF74C
:103A2000CFFF070021D020460AF0D4FF00281CD089
:103A3000288869460AF066F918B189217A20FDF7CD
:103A4000AFFC761CF1B202233A4668460BF0F4FF55
:103A500000280AD1064807490079A0FB016507F054
:103A6000E3FB80196941C4E90001BDE8FC81000065
:103A7000C400002040420F002DE9F0410746FFF747
:103A8000F1FA7C68054684F8990080347F283CD0A0
:103A900094F833007E68A0762946A068FFF75AFFA5
:103AA000A0601B48407990B1786800F18008D0F898
:103AB0008800FFF785FF50B140460AF08BFF30B118
:103AC00078683122134900F5FA700AF0F0FC94F995
:103AD0001B000021281A00D5404296F82920824276
:103AE00010DCFF2A0ED0207F401CC0B2207796F851
:103AF0002A20904202D8E07E7F2803D10020E5767C
:103B0000207701210846BDE8F0810020FBE7000096
:103B1000C4000020013A000070B50446007C00B3E8
:103B200002281ED05FF0010004F1510184F850001A
:103B30000D46C0B1E07DF0B1D4F81100C4F85100D9
:103B4000B4F81500A4F85500207C0AF06CFF20762C
:103B50000820607694F8500029460AF050FFA8B972
:103B60000EE00020E0E70020FEF7B8FA0028EBD1D5
:103B700040F2B94101E040F2BD412D20FDF710FCBB
:103B800094F8500029460AF043FF00B10120A076C6
:103B9000207E30B194F8570004F158010AF07EF805
:103BA0006076FFF77DF80C49A0FB012304F1480083
:103BB0000BF0BEF8002120460BF073F8002084F8CB
:103BC0005E00A078400705D52046BDE87040002182
:103BD00000F0D0BD70BD000040420F0030B50C4673
:103BE0008DB005460146242202A80DF0E1F80BA88D
:103BF0000BF0FBF8A07A8DF8180020788DF80800FB
:103C0000B4F80100ADF800009DF8000000F00101DB
:103C1000C0F3400241EA4201C0F3800241EA82015E
:103C2000C0F3C00241EAC201C0F3001241EA02112E
:103C3000C0F3401241EA4211C0F3801041EA801003
:103C4000ADF80A00207D012806D0022804D040F2F9
:103C5000EA210620FDF7A4FB8DF80C00617A0BA881
:103C60000BF0AAF8207D0121022802D1607D401CC2
:103C7000C1B2A07E401CC2B20BA80BF064F8BDF824
:103C80000A00000701D5002020E00BA80BF06DF81A
:103C9000BDF80A10282200F011FE40F2712100F256
:103CA000D920B0FBF1F04843D4F8021040F2712360
:103CB0000A0A40F271214A43D4F80510090A59430F
:103CC000904201D8049204E0884201D8049000E0B8
:103CD0000491A07C8DF81700207E012800D00020E0
:103CE0008DF81400686B09F041FE686B09F0E6FE80
:103CF000242202A928460DF05BF80B98A862BDF8B3
:103D00003000A885E07A68B102280BD05FF001008E
:103D100085F85700E068A865208AA5F85C000DB01A
:103D2000002030BD0020F3E70A4A10B500211170D1
:103D3000094C606000F022F810B140F22D3104E02F
:103D4000A068002804D14FF44C712D20FDF728FB0A
:103D500010BD0000C40F0020D0000020024901481F
:103D600088607047A4480000D00000200249086025
:103D70008968096808470000D0000020084810B58D
:103D8000007810B10C24204610BD002418222146D2
:103D900003480DF087F803F0E7FF03F00BFEF2E7AE
:103DA000C40F0020044910B50978012901D100F0A1
:103DB000B5FB002010BD0000C40F002002490148DF
:103DC0000860704749460000DC00002010B504463A
:103DD0008078C0F3C00058B13C23FF222046E1693F
:103DE00000F0C2FB1122044904F16C000AF04BFB05
:103DF000012084F8690010BD3BEC00002DE9F04182
:103E00000F00044623D004F1280005460AF0D6FF2F
:103E1000B0B9A078C0F3C00050B328460AF0A5FF9F
:103E2000064628460AF0CAFF301AC0B20BF01BF84B
:103E30000146354842681144416028460AF0DCFFDB
:103E400028460AF09EFF014620460AF066FF2F4DE5
:103E500094F85E600021686801800AF0C4FE608802
:103E6000132813D009DC102836D0122809D131E0EC
:103E70002046BDE8F04100F051BB15280FD01D28A9
:103E80000DD040F272612D20FDF78AFA002168689A
:103E90000AF080F9012168680AF0A5FE20E00121FE
:103EA00068680AF077F9012168680AF09CFE36B16B
:103EB00004F15F0168680AF088F9012106E004F165
:103EC000580168680AF081F994F8571068680AF098
:103ED00082F905E0062100E0022168680AF05AF93B
:103EE000204600F0BDFC60881D2807D0152805D0AD
:103EF00094F83C20A16B68680AF03CF939462046EA
:103F0000BDE8F04100F0F6B9C40F0020D000002059
:103F10002DE9F0412F4D80462878022805D02878D9
:103F2000032802D040F62D512BE02B4C2668307B25
:103F300018B1FFF797F886F82E00D4F804C00027D0
:103F4000B8F1000F9CF8000000F00F0627D02168A0
:103F5000C00901F1510391F850200CF1090109F059
:103F600005FEE0B1394660680AF0F4F8B8B12A7885
:103F700020683146022A07D02A78032A04D040F666
:103F800006512D20FDF70CFAA2682B7852696FF0CC
:103F9000070606EB8303D2589047064600E0012649
:103FA000A87B18B103F0E0FE03F004FD002E0FD053
:103FB00020680AF06EFF30B103F0FEFEA068806852
:103FC000BDE8F04100472068BDE8F04100F0A6BA26
:103FD000BDE8F081C40F0020D000002010B50329F7
:103FE00002D005290AD102E000F092FB03E0044967
:103FF000096809B1884708B1002010BD012010BD33
:10400000DC000020094A0300106801D000F086BAE5
:10401000002909D09168064A096912786FF00F03E8
:1040200003EB82028958084770470000D000002047
:10403000C40F002070B504464088102819D0104DD8
:10404000A87B20B103F0D6FC402003F09BFE0D4876
:10405000406804F01DF9A078400704D400212279BB
:10406000084604F09DF9002003F0C8FF02202870E4
:1040700070BD2046BDE870400121FFF7BFBE0000C3
:10408000C40F0020D000002010B5124C206800F0B2
:1040900025F820680AF0FDFE002820680BD00E49A4
:1040A0000A78022A0BD00A78032A08D040F6374152
:1040B0002D20FDF775F9BDE8104000F02FBAA26879
:1040C0000978D2686FF0070303EB81015158BDE80E
:1040D00010400847D0000020C40F002010B5017B1D
:1040E00021B10446FEF7BEFF84F82E000548807B10
:1040F000002805D003F038FEBDE8104003F05ABC9C
:1041000010BD0000C40F00202DE9F0415D4D0446B4
:1041100086B0287800284ED12078FF284BD04FF069
:104120000008A5F80C80C5F8048085F8018085F8A2
:10413000028084F86980544B544E0FCB8DE80F00F9
:10414000B06840680390684603F02CFF03F0FAFF64
:1041500004F07CFA03F008FE03F02CFC4C4804F059
:1041600051F94C4804F058F904F1280007460AF0C8
:1041700043FE38460AF005FE014620460AF0CDFD12
:1041800094F90E0004F062F82179002003F09EFEFD
:104190000121A86098B104F13801606B09F055FC69
:1041A000074604F14001606B09F052FC4FB194F8EE
:1041B000201051B905E00C2006B0BDE8F08129704F
:1041C0005EE020B194F8210008B1012700E000274B
:1041D000A07E20B9207E10B9A078400723D5D4E96D
:1041E00012106FF00042504070EA010106D007F053
:1041F0001BF8D4E91223801A994100D29FB1FEF72F
:104200004FFD2549A0FB012304F148000AF090FD71
:10421000012120460AF045FDA078400703D5012181
:10422000204600F0A7FAFEF793FD7068C01C09F065
:1042300028FDA873A078C00722D0CDF81080FF20F9
:10424000CDF81480E873E66906F10A0713E0049CD0
:10425000B44210D0727A607A3B4604F10A0109F048
:1042600085FC40B1A078E873D4F803002861B4F865
:104270000700A88204E004A8FDF7D0FA0028E6D0E1
:10428000002099E7C40F002084480000D0000020DF
:10429000D6BE898E5555550040420F0010B50446D4
:1042A000FFF732FF002808D104480078012803D026
:1042B00000212046FFF7A2FD002010BDC40F002002
:1042C0000A4810B50A490468087800280DD0087813
:1042D000022802D00878032802D12046FFF7FEFE0C
:1042E0002046BDE8104000F019B910BDD0000020F4
:1042F000C40F00202DE9F041044629480D464068CE
:1043000003F0C6FF274E0420307055B36088102894
:1043100023D004F128008046B5680AF026FD074640
:1043200040460AF04BFD381A401EC0B26188282270
:1043300000F0E4FA0544A078C0F3C00030B1706822
:1043400005440AF094FD2844C4F8D800227929468F
:10435000002003F0B3FF20B90CE02179002003F026
:104360007BFD6088132811D007DC102815D0122897
:1043700007D10BE040F6A85105E0152806D01D280E
:1043800004D040F6BC512D20FDF70AF82279BDE893
:10439000F0410121002004F003B8BDE8F0810000E5
:1043A000D0000020C40F002038B5044690F8BC00AF
:1043B0000B468DF80000009800909DF80000002842
:1043C0003AD1207884F8BD00FF2B10D004F1BF0251
:1043D000511E1846FEF738FC30B194F8BE0040F08C
:1043E000020084F8BE0011E041F2080121E0134808
:1043F00040680178C1F3801184F8BE10D0F8031032
:10440000C4F8BF10B0F80700A4F8C30094F92E0058
:104410007F280CD084F8C5007F2084F82E0004F19A
:10442000B400BDE83840202205490AF02CB840F617
:104430006C612D20FCF7B4FF38BD0000D0000020D7
:104440008BEC00002DE9F04790460E460446032908
:1044500004D094F8680008B1012000E000208146F3
:1044600003F09CFC0546032E03D00127052E05D042
:1044700008E0A0780227C0F3400001E0A078C00760
:10448000002842D0B9F1000F3ED12248807B40B1D4
:1044900009F0FAFB88F80000FF2802D0FEF7EEFBD7
:1044A00005431D4E94F8572004F15803716811F824
:1044B000030BC0F3801009F059FB98F80010FF2996
:1044C00004D090B9607E88420FD008E038B171689E
:1044D00011F8030BC0F380100AF08EFB28B1002006
:1044E000A178490703D590B90EE00120F8E775B926
:1044F000E07B08B1B84207D1716811F8030BC0F333
:1045000080100AF079FB10B10020BDE8F08701208F
:10451000FBE70000C40F0020D000002070B5044667
:10452000008E104D401C2086A87B002620B103F091
:104530001BFC03F03FFAAE732E7094F8690008B1CB
:1045400001210AE0607B38B1218E884204D8012124
:1045500020460AF0B0FC70BD00212046BDE8704046
:104560000AF0A9BCC40F00202DE9F041044680F8F0
:1045700075300888A4F87600FF2084F893004FF681
:10458000FF7016460D46A4F89400002B4BD1286905
:1045900009F0C9FBA4F88C00288BA4F88E00688B66
:1045A000A4F8900095F81B0284F89200207E04F194
:1045B00051010F46002520B194F850000AF028FA66
:1045C00040B994F86A0070B194F8500039460AF086
:1045D00016FA40B1D4F85100C4F88000B4F8550080
:1045E000A4F8840003E0C4F88050A4F8845015486F
:1045F000FF2E40680178C1F3801184F8791050F8DB
:10460000031F17D0C4F886108088A4F88A0004F12C
:104610007A02511E3046FEF717FB30B114F8790FBD
:1046200040F002002070BDE8F08140F68B412D2063
:10463000FCF7B6FE44F87A1F8088A080E5602582EA
:10464000F1E70000D0000020F8B50446FF208DF807
:10465000000001266A4605212046FFF7F3FE60B1FF
:10466000284D274F6968FA7B07F1100311F8030BF7
:10467000C0F3801009F07AFA10B100263046F8BD78
:104680006A68E069127810F8A51FC2F34012114061
:10469000017001222046E16900F09AF800239DF89C
:1046A00000202046E169FFF75FFF1122164904F15F
:1046B0006C0009F0E8FEE06905220188A4F8B0105A
:1046C00090F8A50084F8B200104904F1A60009F0A2
:1046D000DAFE0021E06939700A46214600F086FAC8
:1046E0006868E169D0F8032041F8032FB0F807208B
:1046F0008A800078E169C0F380108870BEE700000E
:10470000C40F0020D00000203BEC00002BEC000088
:10471000F8B50446FF208DF8000001256A46032104
:104720002046FFF78FFEE8B1207B20B19DF80010F6
:104730002046FFF739FE0D4E0021706801800421EC
:1047400009F028FD204600F08BF894F84420216CF5
:10475000706809F056FD064905200870706803F07E
:1047600097FD00E000252846F8BD0000D00000209D
:10477000C40F002070B504460E46407EFEF73EFA98
:10478000050019D0102109F04FFC002814D1012098
:1047900084F85E0004F15F0132460C46284609F0B9
:1047A00015FA2146054C606809F00FFD6068BDE808
:1047B0007040012109F00FBD70BD0000D000002045
:1047C000024801210068FFF719BB0000D00000205B
:1047D0002DE9F041214E80460C467068154650F890
:1047E0000F1F6161416821F07F41E161408909F05B
:1047F00096FA0746206170683946807D09F00BFC07
:10480000A08470683946B0F8170009F000FC2062F7
:10481000706830F81B1F2183418861834168C4F8A8
:10482000A610017A84F8AA10417A01F01F0184F8D9
:10483000B110407A400984F81B0204F1620005724D
:104840004572FF2181720021363809F0CBFE98F8BD
:104850000E0084F86E00BDE8F0810000D00000205A
:1048600070B5074D044600F15101686809F0BAFCC3
:1048700094F850106868BDE8704009F0B9BC0000B9
:10488000D000002089400000113F000005400000DA
:1048900000000000DD3F0000354000001FEC00007C
:1048A00025EC00009D420000C1420000C14700000D
:1048B000A0480000984800009448000010B5421E2F
:1048C000022A01D9CA2109E0401E102909D0122963
:1048D0000CD013290AD0152905D0D8212F20FCF798
:1048E0005FFD054904E00449891D01E00249891F73
:1048F00031F8100010BD000086EE0000421E10B519
:10490000D2B2012A03D91D2901D0EE210DE01329CD
:1049100013D004DC10290BD0122904D10DE0152985
:1049200008D01D290ED04FF481712F20FCF738FDDF
:10493000074804E00648083001E00548001D30F84B
:10494000120010BD40F25A3110FB01F010BD000002
:1049500074EE00002DE9F041044690F8E0001646A0
:104960000F4600285ED121464D4806F04DFA054617
:10497000202857D05022002104F1C8000CF092FAF0
:1049800084F8C8500125C4F8CC7084F8E05037B1E1
:10499000FEF7BAFE00F00700401C87F84C022046E4
:1049A0000AF026FCA4F8F000022084F8F200A846E1
:1049B00084F8F350002504F8E85F07F0B1FB0746E0
:1049C0000CF06CF82189E83C884200D8084638444D
:1049D000CC3087B220460AF0CEF830B30BF064FF3B
:1049E00000F5CD6081B2304607F0BAFC3044C4F81F
:1049F000EC00903406F018FCC0196941C4E91A01B2
:104A000084F8408024F86E5C01200AF02CFA00F54E
:104A10008870301A60644FF0FF304108C4E91E010D
:104A2000903C25E00C20BDE8F081002120460AF0F2
:104A300031FBDFF87080C4F8EC000020B8F80410F7
:104A400049B1618C39B1FEF75FFEB8F80410B0FBD4
:104A5000F1F201FB1200074406F0E6FBC0196941C0
:104A6000C4E93E019EB1801951EB0501C4E9420140
:104A700094F8C80004F1E8010AF0B8FB58B1A4F8B2
:104A80000051002120460AF0A6F80020CBE74FF0A5
:104A9000FF304108EAE74FF4F4713020FCF780FC66
:104AA00069F30000E00000200149888070470000A1
:104AB000E000002005480021017001228270417051
:104AC00042F21071818000F003B80000E000002085
:104AD0001CB50949D1E90001CDE9000102E00098C7
:104AE0000AF0FDF96846FCF799FE0028F7D000F0BF
:104AF000A9F800201CBD0000A45300000149087063
:104B000070470000E000002008494FF47A72B1FBC2
:104B1000F2F110B501F5257109F07DFD40F648016F
:104B2000884200D3084680B210BD00007D520100CB
:104B30002DE9F0410F4CD4E9026703F0C3FA0546B2
:104B400002463946304609F0F4F80646A068864227
:104B500005D02169301A0844206106F097FAA66052
:104B6000B54201D8607810B10020BDE8F081012085
:104B7000FBE70000E000002010B5044606292ED215
:104B8000DFE801F0051103141528002106E0D4F830
:104B9000AC0210B120460AF0BCFA01212046BDE863
:104BA000104000F0F7B8032084F85C0210BD03F059
:104BB0008FFAC4F8AC0294F86B0003F04DFBD4F804
:104BC000AC12091A084882680A448260C26811441B
:104BD000C16010BD2046BDE810400AF085BA4FF410
:104BE000E8613020FCF7DCFBE000002070B50C46EB
:104BF000054612B140F26A7110E003F063FA014613
:104C0000002220460AF064FB94F8C8002A460549B1
:104C100005F0B0FF002804D140F253713020FCF7BA
:104C2000BFFB70BD0BF4000010B50C2804D340F29C
:104C30008B310620FCF7B4FB014931F8100010BDA0
:104C4000C05300002DE9FC41154D0120687000247F
:104C50004FF6FF760BE0002108F0D9FD070009D0E0
:104C600097F8A40205F0B8FF38460AF024FB009438
:104C700001940DE04FF490713020FCF791FB009807
:104C800030B190F85C1219B10088B042E3D104E071
:104C90006846FCF7C3FD0028F1D06C70BDE8FC81CC
:104CA000E00000202DE9F047044639481E469046B2
:104CB000807889460025002863D007F007FBE0B321
:104CC000B4F8480202285CD394F85C02022858D059
:104CD00094F8720288BB94F81B02FFF7A5FF00F559
:104CE000C86081B2318094F85C02002701280DD0A1
:104CF000206907F035FBB4F836224244A2EB0901E3
:104D0000D4F86422821A01FB027535E094F8A10000
:104D1000032839D00121002009F0D6F8216A47186C
:104D20003188D4F8540207F01BFBD4F85022D4F891
:104D30005812821A01FB025500E022E0C4F850022A
:104D40003188384607F00CFBD4F86012C4F86002D2
:104D5000411A0D443188206907F002FBB4F836226D
:104D60004244A2EB0901D4F85822891AD4F86422EB
:104D7000821A491E01FB0255C4F86402012084F81E
:104D800072022846BDE8F087D4F85402C6E7000056
:104D9000E000002038B500250446012902D1104862
:104DA000407870B1042084F85C0200BF0AF0AAF9D0
:104DB000A4F8A252B4F89400A4F86E0284F87152D8
:104DC00038BD0095B4F8241201230022204600F0DB
:104DD00009F80028EAD040F2B5613020FCF7E0FA8B
:104DE000E00000202DE9FF4F8BB0044690F86B00E7
:104DF00099460F46079305900BF056FD054694F82B
:104E00001B02FFF711FF2844ADF8040094F89E0040
:104E10000D2804D0002008900D9810B12EE001203C
:104E2000F9E794F85C02032828D1089830B3B4F865
:104E3000CC02B84222D1D4F86402C4F850022069EE
:104E4000C4F85402B4F8A202B4F836120844C4F804
:104E50005802204600F0C0FAD4F8D0022062B4F81C
:104E6000CE02A084D4F8D4022061B4F8D802208302
:104E7000B4F8DA026083022084F85C02B4F894008B
:104E800004F51E75381A0FFA80FAB4F8A002381A21
:104E90000FFA80F8B8F1000F08DAD4F89002D4F8CD
:104EA0009412D046C4E9A6010120079001AB5246F6
:104EB00041462046FFF7F6FE049094F85C02DFF8C6
:104EC00034B340B101287DD0022851D003287AD0D4
:104ED00040F243518AE10121002008F0F5FF064627
:104EE000206ABDF80410304407F03AFAC4F86002B2
:104EF000BDF80410206907F033FAC4F8640207A96A
:104F000006A803F047F8D4E9A601DDE9062306F078
:104F10009DF9824620460AF0E7F894F86B00D4F831
:104F2000A88203F0C5F94AF2A13101444FF47A7026
:104F3000B1FBF0F0216AD4F860223144081A811ADA
:104F400041442039A1EB0A065000A18C6030014495
:104F500094F86B000AF038F92230CBF81400D4F83A
:104F6000A802301AB0F5DE7F58D240F2DC413DE1B4
:104F7000216AD4F854020844BDF8041007F0F0F98F
:104F8000C4F86002BDF80410206907F0E9F9C4F81C
:104F9000640220460AF0A8F8B4F8360210BBB9F152
:104FA000000F1FD094F86B80404603F081F94AF25D
:104FB000A13101444FF47A70B1FBF0F0D4F86012E3
:104FC000084401E02BE047E0226AD4F8541211446F
:104FD0000E1A404603F040F9D4F8AC12081A064401
:104FE000203E06E0216AD4F854020844D4F8601246
:104FF000461AD4F85822D4F85012D4F8600201FBB3
:1050000002004000A18C6030014494F86B000AF06B
:10501000DBF8CBF81400012084F85C0261E0D4F8DE
:1050200064222069B4F83612861A01EB0A00D4F81B
:105030005812D4F850C2401AD4F86032401E0CFB0B
:10504000013100FB02104000A18C6030014406FBDE
:1050500008F694F86B0040E02069D4F8641200FB75
:1050600008F008FB110694F89D00252803D094F859
:105070009E00252809D1B4F8CC02381A00B20028C5
:1050800003DB94F8CF0200B105900798D8B1B4F8CB
:105090003602C0B9D4F8AC0200287DD094F86B0079
:1050A00003F006F94AF2A13101444FF47A70B1FBE2
:1050B000F0F0361A94F86B0003F0CEF8D4F8AC1286
:1050C000081A0644203EB4F8361201EB0A00D4F860
:1050D000641248434100603105980AF075F8CBF836
:1050E00014000498DBF81420311AD4F864622069A3
:1050F000801BA0F24620CBF81800824200D8104650
:10510000C4F8300200262E7064202881D4E9A6203D
:1051100051187041C5E9041004F12C0009F04CFA53
:10512000D4F8301208446860D5E90401C4E9A60146
:10513000A4F8A072AE72B4F82002C01B00B200281E
:1051400001DD0220A872089838B3B9F1000F1CD015
:10515000B4F84812F1B3B4F84A0200BFA4F84A0206
:1051600094F84C22401C42438A420ED2A87A60B185
:10517000AE72B4F84A02401CA4F84A02FEF7BEFA26
:1051800000F00700401C84F84C0294F8A402294661
:105190000AF02CF840B301E009E00BE00D9880F034
:1051A000010084F8700200200FB0BDE8F08F40F2DB
:1051B0002E511BE0B9F1000FCAD194F85C0200280F
:1051C000E3D0D4F864122069411A284608F08EFE14
:1051D000000400E006E0000CD7D0189901B1088067
:1051E0000120E1E70020B9E740F28C513020FCF7C4
:1051F000D7F80000E000002070B504460BF04EFC2C
:10520000642801D9054600E0642594F86B00282144
:1052100009F0F8FE2844D4F8641200F510700E1856
:1052200094F86B00282109F0EDFE00F52972204664
:10523000E16A09F060F9054632462046216909F025
:105240005AF909498542C86000D2284688600A7820
:1052500002B9C860D4F87C02A0F269100861BDE808
:10526000704005F013BF0000E00000207CB504464C
:1052700005F0DAFFD4F89032D4F89422C01A61EB2A
:10528000020100221346121A8B4102DB40F209612F
:105290004DE0421C71F1000102DB40F20A6146E080
:1052A000226900210AB1B0FBF2F194F89E000D28AA
:1052B000B4F86E021BD0B4F894205318C31A1BB272
:1052C000002B01DB401C01E0491C5018A4F86E02C1
:1052D00094F871028DF80000009800909DF800008D
:1052E00040B9B4F86E02B4F82412884202D1401CCE
:1052F000A4F86E02B4F8A202401CA4F8A202B4F80A
:10530000CE00B4F8CC10401AB4F89410401E0844F3
:1053100085B226E001A8002300901A462046FFF738
:1053200061FD00283AD0012804D040F249613020C4
:10533000FCF736F8B4F86E02B4F82012421A12B232
:10534000002A09DABDF804200244AA1A12B2002A7F
:1053500002DAA4F86E1204E0BDF804100844A4F8C0
:105360006E02B4F86E12681A00B20028D2DA94F80D
:10537000A10088B15FF0080084F8BD000B22084945
:1053800004F1B40009F07FF820460AF0BFF8204687
:10539000BDE87C4009F08FBF3E20EDE77CBD0000FA
:1053A000C5E7000000000000000001000000000050
:1053B0000000010000000000141E00003011000079
:1053C000F401FA00960064004B0032001E00140045
:1053D0000A0005000200010010B50446D0F8D4020E
:1053E0002169884209D1B4F8D812228B914204D1A4
:1053F000B4F8DA12628B914214D02188A4F8CA1151
:1054000008F091FCA4F8CC01B4F8D802A4F8CE01BD
:10541000B4F8DA02A4F8D0010922074904F5DF70D4
:1054200009F045F802212046FDF780FD002004F830
:105430009E0F0320E07010BD09E8000006480549F2
:105440000165064941650748054901650649416509
:1054500070470000BD67000014010020A168000033
:105460002DF70000C001002057F700001E481D491D
:1054700081601E4941601E4901601E4981621E49CA
:10548000C1621E49C1601E4981611E4901631E49F6
:1054900001621E49C1641E4981641E4941641E495E
:1054A00041631E49C1611E4941621F481D49816017
:1054B0001E49C1611E4941621E49C1621E49016106
:1054C0001E4941611E4941641E4941631E49816173
:1054D0001E4901631E4981641E49C1641E498163DE
:1054E00070470000E16B000014010020AD65000072
:1054F00019660000EFF5000039F60000D9660000DB
:1055000051F60000A56C000075670000C1F50000B1
:105510009BF50000596B00008D6B0000196C0000BA
:1055200081670000A1F80000C0010020816D00002B
:1055300029F70000C1F7000003F7000083F800001E
:1055400031F8000061F800000D6D0000C3F80000A4
:1055500087F70000B1F700007FF800000648054912
:105560008165064901660748054981650649C165A7
:10557000704700002169000014010020056A000046
:10558000E7F70000C001002011F80000F8B57C4CDE
:105590000121A4F1100621700025606075807570EE
:1055A000357080F82B120088FCF70CFB80B1606826
:1055B0000088FCF76FFD60680088FCF713FD6068E9
:1055C000B0F82212C9B1803009F0AFFF18B114E071
:1055D00040F659516CE0606890F830118DF8001079
:1055E000009900919DF8001039B190F89F20012397
:1055F0001946803008F0B0FB80B16068803009F057
:1056000094FF28B1606890F8260100BF00F0B4FB59
:10561000606890F82D1289B1B5801EE06068A0F82E
:10562000D05090F8311180F828110021022000F0AC
:1056300063FE606880F82A520220E7E790F8C611FE
:105640008DF80010009900919DF8001019B9C18CD7
:10565000028B914200D8018BB180B0F82612491E0E
:105660008FB2B0F828123944A0F8281230F8CC1FB5
:105670003944018001F0B2FB20B1606850F8C01FCE
:10568000394401606168B1F82202012802D8401C47
:10569000A1F822020FB181F8345281F82A52B1F8F0
:1056A000262201F1800008F0FBFC20B14FF45A6182
:1056B0003120FBF775FE606890F89E100A2901D032
:1056C0000B2919D1B0F89420B0F8CC32D21A12B20A
:1056D000002A11DBD0F8CE12C0F8A61090F8D21232
:1056E00080F8AA100321FDF721FC606880F89E5025
:1056F000FF2180F8F41026E0252911D1B0F894108C
:10570000B0F8CC22891A09B2002909DB80F89E5032
:1057100000F0ACFE0028606880F83C5129D012E00F
:1057200090F89D10252901D027290CD1B0F89410AC
:10573000B0F8CC22891A09B2002904DB80F89D5008
:1057400000F094FEA8B10F480090D6E904010E4B7A
:105750000E4AFCF72DFD60680123052190F89E207C
:10576000803008F0F9FA002809D0BDE8F840FCF7CD
:1057700019BDBDE8F8400021084600F0C9BBF8BDDE
:105780000C010020115F00004D5A0000B9630000B9
:1057900004480021406820F8D81F8178491C817096
:1057A000704700000C010020074810B5416811F84F
:1057B000DA0F401E40B20870002804DA40F20121DE
:1057C0003120FBF7EDFD10BD0C0100201D4908B58F
:1057D000496891F89E20C0B1112A06D0152A07D039
:1057E000162A09D01C2A28D109E001210B2008E043
:1057F000144809F03EFF06E000F09CFD03E00121A3
:10580000062000F079FD012008BD222A04D02F2AAD
:1058100013D101211120F4E791F83C0102280ED0A8
:1058200091F83C01012808D191F83D018DF8000064
:10583000009800909DF8000008B1002008BD0121EB
:105840001720DEE70C01002038B5002876D13C4C4B
:105850006068D0F88C10CA0702D00121092069E0E5
:105860008A070AD501210C2000F046FD606810F877
:10587000DD1F41F0010101705EE04A0702D5012100
:10588000132057E00A0706D590F8201180F8281158
:10589000012107204EE011F0300F47D090F833116E
:1058A0008DF80010009900919DF80010D9BB90F878
:1058B000321100258DF80010009900919DF800101C
:1058C000C1B190F89E1025292ED090F89D10252961
:1058D0002AD0002300F2CE2200F5997108F0FDFDD8
:1058E000606850F88C1F21F0200141F01001016028
:1058F00080F8A650606890F88C10C9061ED508F094
:1059000007FE05216068FFF737F900F025F96168A7
:1059100001F12C00C28BA1F82821408CA1F82A01AA
:105920000121152006E009E00123D3E7480605D54B
:105930000121242000F0E0FC012038BD002038BD0A
:105940000C01002070B50D46064608F004FD044623
:10595000304608F002FD294600F01EF8B8B1204696
:1059600008F0A4FA01000DD00A48406890F86B20B6
:105970008A4207D090F83C11012905D090F86700C1
:10598000204204D0012070BD90F83F01F8E70020CC
:1059900070BD00000C01002070B50D46044608F0F3
:1059A00085FA50B31649496891F86A20824224D09A
:1059B00091F83C31012B05D091F86630234213D089
:1059C0001DB11AE091F83E31F8E791F863102142D9
:1059D00013D15AB1042A0ED004280CD0082A0AD0B8
:1059E000082808D0824208D9002070BD40F2A311D7
:1059F0000620FBF7D5FC8242F6D3012070BD0000E3
:105A00000C01002010B5104C01230021606890F8B3
:105A10009D20803008F0A0F940B160680123042186
:105A200090F89E20803008F097F908B1002010BD52
:105A3000606890F8CA000028F9D00021122000F018
:105A40005BFC012010BD00000C0100200D49024646
:105A50004878A0B901F11000406842B1897809077F
:105A600003D590F89F00072809D00120704700F166
:105A70002C018A8C818E8A4201D8FFF759B8002008
:105A800070470000FC00002038B5324C05466068C5
:105A9000803009F04AFD00285BD1002D59D16068A3
:105AA0000123194690F89F20803008F055F900280E
:105AB0004FD1606890F830118DF800100099009176
:105AC0009DF80020002142B1A0F8D01090F83111CB
:105AD00080F828110021022030E090F89E20012358
