:10800000A0E20020A5A20000BB09010079A20000A7
:1080100079A2000079A2000079A2000079A20000F4
:108020000000000000000000000000009D9F000014
:1080300079A20000000000003D9F000079A200002E
:1080400021A0000021A0000021A0000021A000002C
:1080500021A0000021A0000021A0000021A000001C
:1080600021A0000021A0000021A0000021A000000C
:1080700021A0000021A0000021A0000021A00000FC
:1080800021A0000021A0000021A0000021A00000EC
:1080900021A0000021A0000021A0000021A00000DC
:1080A00021A0000021A0000021A0000021A00000CC
:1080B00021A0000021A0000021A0000021A00000BC
:1080C00021A0000021A0000021A0000021A00000AC
:1080D00021A0000021A0000021A0000021A000009C
:1080E00021A0000021A0000021A0000021A000008C
:1080F00021A0000021A0000021A0000021A000007C
:1081000021A0000021A0000021A0000021A000006B
:1081100021A0000021A0000021A0000021A000005B
:1081200021A0000021A0000021A0000021A000004B
:1081300021A0000021A0000021A0000021A000003B
:0481400021A000007A
:04814400FFFFFFFF3B
:108148004FF0FF0C1CEAD0521EBF1CEAD15392EA32
:108158000C0F93EA0C0F6FD01A4480EA010C40020E
:1081680018BF5FEA41211ED04FF0006343EA501068
:1081780043EA5111A0FB01310CF00040B1F5000FAA
:108188003EBF490041EAD3715B0040EA010062F159
:108198007F02FD2A1DD8B3F1004F40EBC25008BF43
:1081A80020F00100704790F0000F0CF0004C08BF61
:1081B80049024CEA502040EA51207F3AC2BFD2F12E
:1081C800FF0340EAC250704740F400004FF000033C
:1081D800013A5DDC12F1190FDCBF00F00040704776
:1081E800C2F10002410021FA02F1C2F1200200FAB4
:1081F80002FC5FEA310040F1000053EA4C0308BF7B
:1082080020EADC70704792F0000F00F0004C02BFCB
:10821800400010F4000F013AF9D040EA0C0093F046
:10822800000F01F0004C02BF490011F4000F013BA0
:10823800F9D041EA0C018FE70CEAD15392EA0C0F0E
:1082480018BF93EA0C0F0AD030F0004C18BF31F079
:10825800004CD8D180EA010000F00040704790F04F
:10826800000F17BF90F0004F084691F0000F91F0F3
:10827800004F14D092EA0C0F01D142020FD193EAB9
:108288000C0F03D14B0218BF084608D180EA010041
:1082980000F0004040F0FE4040F40000704740F01D
:1082A800FE4040F44000704781F0004102E000BF0A
:1082B80083F0004330B54FEA41044FEA430594EA9E
:1082C800050F08BF90EA020F1FBF54EA000C55EAD9
:1082D800020C7FEA645C7FEA655C00F0E2804FEAAA
:1082E8005454D4EB5555B8BF6D420CDD2C4480EA8C
:1082F800020281EA030382EA000083EA010180EABC
:10830800020281EA0303362D88BF30BD11F0004F09
:108318004FEA01314FF4801C4CEA113102D040423F
:1083280061EB410113F0004F4FEA03334CEA13337A
:1083380002D0524263EB430394EA050F00F0A78092
:10834800A4F10104D5F1200E0DDB02FA0EFC22FA8D
:1083580005F2801841F1000103FA0EF2801843FA81
:1083680005F359410EE0A5F120050EF1200E012A72
:1083780003FA0EFC28BF4CF0020C43FA05F3C018B0
:1083880051EBE37101F0004507D54FF0000EDCF129
:10839800000C7EEB00006EEB0101B1F5801F1BD3D2
:1083A800B1F5001F0CD349085FEA30004FEA3C0CD6
:1083B80004F101044FEA445212F5800F80F09A80CC
:1083C800BCF1004F08BF5FEA500C50F1000041EBD0
:1083D800045141EA050130BD5FEA4C0C404141EBD4
:1083E8000101013C28BFB1F5801FE9D291F0000FCF
:1083F80004BF01460020B1FA81F308BF2033A3F17E
:108408000B03B3F120020CDA0C3208DD02F1140C74
:10841800C2F10C0201FA0CF021FA02F10CE002F1AF
:108428001402D8BFC2F1200C01FA02F120FA0CFCA8
:10843800DCBF41EA0C019040E41AA2BF01EB0451F1
:10844800294330BD6FEA04041F3C1CDA0C340EDCEF
:1084580004F11404C4F1200220FA04F001FA02F332
:1084680040EA030021FA04F345EA030130BDC4F1F0
:108478000C04C4F1200220FA02F001FA04F340EAE5
:108488000300294630BD21FA04F0294630BD94F096
:10849800000F83F4801306BF81F480110134013D7D
:1084A8004EE77FEA645C18BF7FEA655C29D094EAEE
:1084B800050F08BF90EA020F05D054EA000C04BF6C
:1084C8001946104630BD91EA030F1EBF0021002057
:1084D80030BD5FEA545C05D14000494128BF41F0F6
:1084E800004130BD14F580043CBF01F5801130BD5A
:1084F80001F0004545F0FE4141F470014FF00000E5
:1085080030BD7FEA645C1ABF194610467FEA655C95
:108518001CBF0B46024650EA013406BF52EA033537
:1085280091EA030F41F4002130BD00BF90F0000F25
:1085380004BF0021704730B54FF4806404F1320461
:108548004FF000054FF0000150E700BF90F0000F1A
:1085580004BF0021704730B54FF4806404F1320441
:1085680010F0004548BF40424FF000013EE700BF11
:1085780042004FEAE2014FEA31014FEA02701FBFA1
:1085880012F07F4393F07F4F81F06051704732F0D3
:108598007F4208BF704793F07F4F04BF41F400212A
:1085A800704730B54FF4607401F0004521F0004188
:1085B8001CE700BF50EA010208BF704730B54FF012
:1085C80000050AE050EA010208BF704730B511F013
:1085D800004502D5404261EB41014FF4806404F14B
:1085E80032045FEA915C3FF4D8AE4FF003025FEAD1
:1085F800DC0C18BF03325FEADC0C18BF033202EB55
:10860800DC02C2F1200300FA03FC20FA02F001FAAE
:1086180003FE40EA0E0021FA02F11444BDE600BF51
:1086280070B54FF0FF0C4CF4E06C1CEA11541DBF00
:108638001CEA135594EA0C0F95EA0C0F00F0DEF8CB
:108648002C4481EA030621EA4C5123EA4C5350EAB0
:10865800013518BF52EA033541F4801143F4801301
:1086680038D0A0FB02CE4FF00005E1FB02E506F092
:108678000042E0FB03E54FF00006E1FB03569CF0E7
:10868800000F18BF4EF0010EA4F1FF04B6F5007FED
:1086980064F5407404D25FEA4E0E6D4146EB06065F
:1086A80042EAC62141EA55514FEAC52040EA5E50E8
:1086B8004FEACE2EB4F1FD0C88BFBCF5E06F1ED892
:1086C800BEF1004F08BF5FEA500E50F1000041EBC9
:1086D800045170BD06F0004646EA010140EA020076
:1086E80081EA0301B4EB5C04C2BFD4EB0C0541EA98
:1086F800045170BD41F480114FF0000E013C00F3AD
:10870800AB8014F1360FDEBF002001F0004170BDD0
:10871800C4F10004203C35DA0C341BDC04F11404E9
:10872800C4F1200500FA05F320FA04F001FA05F275
:1087380040EA020001F0004221F0004110EBD37042
:1087480021FA04F642EB06015EEA430E08BF20EA6E
:10875800D37070BDC4F10C04C4F1200500FA04F311
:1087680020FA05F001FA04F240EA020001F00041A3
:1087780010EBD37041F100015EEA430E08BF20EA16
:10878800D37070BDC4F1200500FA05F24EEA020E5E
:1087980020FA04F301FA05F243EA020321FA04F08D
:1087A80001F0004121FA04F220EA020000EBD37044
:1087B8005EEA430E08BF20EAD37070BD94F0000F44
:1087C8000FD101F00046400041EB010111F4801F78
:1087D80008BF013CF7D041EA060195F0000F18BF29
:1087E800704703F00046520043EB030313F4801F65
:1087F80008BF013DF7D043EA0603704794EA0C0F1F
:108808000CEA135518BF95EA0C0F0CD050EA410634
:1088180018BF52EA4306D1D181EA030101F00041B1
:108828004FF0000070BD50EA410606BF10461946D9
:1088380052EA430619D094EA0C0F02D150EA0136E5
:1088480013D195EA0C0F05D152EA03361CBF104626
:1088580019460AD181EA030101F0004141F0FE41C5
:1088680041F470014FF0000070BD41F0FE4141F449
:10887800780170BD70B54FF0FF0C4CF4E06C1CEA49
:1088880011541DBF1CEA135594EA0C0F95EA0C0FFE
:1088980000F0A7F8A4EB050481EA030E52EA0335B9
:1088A8004FEA013100F088804FEA03334FF08055DA
:1088B80045EA131343EA12634FEA022245EA111507
:1088C80045EA10654FEA00260EF000419D4208BFB8
:1088D800964244F1FD0404F5407402D25B084FEA65
:1088E8003202B61A65EB03055B084FEA32024FF411
:1088F80080104FF4002CB6EB020E75EB030E22BF6E
:10890800B61A754640EA0C005B084FEA3202B6EB2D
:10891800020E75EB030E22BFB61A754640EA5C00DC
:108928005B084FEA3202B6EB020E75EB030E22BF6C
:10893800B61A754640EA9C005B084FEA3202B6EB6D
:10894800020E75EB030E22BFB61A754640EADC002C
:1089580055EA060E18D04FEA051545EA16754FEA8E
:1089680006164FEAC30343EA52734FEAC2025FEAAC
:108978001C1CC0D111F4801F0BD141EA00014FF03B
:1089880000004FF0004CB6E711F4801F04BF01430C
:108998000020B4F1FD0C88BFBCF5E06F3FF6AFAE28
:1089A800B5EB030C04BFB6EB020C5FEA500C50F1B8
:1089B800000041EB045170BD0EF0004E4EEA11313B
:1089C80014EB5C04C2BFD4EB0C0541EA045170BD42
:1089D80041F480114FF0000E013C90E645EA060E86
:1089E8008DE60CEA135594EA0C0F08BF95EA0C0FB4
:1089F8003FF43BAF94EA0C0F0AD150EA01347FF4FC
:108A080034AF95EA0C0F7FF425AF104619462CE7D2
:108A180095EA0C0F06D152EA03353FF4FDAE104635
:108A2800194622E750EA410618BF52EA43067FF486
:108A3800C5AE50EA41047FF40DAF52EA43057FF416
:108A4800EBAE12E74FEA4102B2F1E04324BFB3F5BF
:108A5800001CDCF1FE5C0DD901F0004C4FEAC002AD
:108A68004CEA5070B2F1004F40EB830008BF20F091
:108A78000100704711F0804F21D113F13872BCBF4B
:108A880001F00040704741F480114FEA5252C2F1A0
:108A98001802C2F1200C10FA0CF320FA02F018BFE9
:108AA80040F001004FEAC1234FEAD32303FA0CFC3C
:108AB80040EA0C0023FA02F34FEA4303CCE77FEACB
:108AC800625307D150EA01331EBF4FF0FE4040F415
:108AD8004000704701F0004040F0FE4040F40000C4
:108AE800704700BF80F0004002E000BF81F0004105
:108AF80042001FBF5FEA410392EA030F7FEA226C3C
:108B08007FEA236C6AD04FEA1262D2EB1363C1BFCB
:108B1800D218414048404140B8BF5B42192B88BF3A
:108B2800704710F0004F40F4000020F07F4018BF5D
:108B3800404211F0004F41F4000121F07F4118BF7D
:108B4800494292EA030F3FD0A2F1010241FA03FC25
:108B580010EB0C00C3F1200301FA03F100F000430D
:108B680002D5494260EB4000B0F5000F13D3B0F1D5
:108B7800807F06D340084FEA310102F10102FE2A44
:108B880051D2B1F1004F40EBC25008BF20F00100B4
:108B980040EA03007047490040EB0000013A28BF53
:108BA800B0F5000FEDD2B0FA80FCACF1080CB2EBD6
:108BB8000C0200FA0CF0AABF00EBC2505242184354
:108BC800BCBFD0401843704792F0000F81F40001F9
:108BD80006BF80F400000132013BB5E74FEA4103CC
:108BE8007FEA226C18BF7FEA236C21D092EA030F38
:108BF80004D092F0000F08BF0846704790EA010FB2
:108C08001CBF0020704712F07F4F04D1400028BFDE
:108C180040F00040704712F100723CBF00F50000C0
:108C2800704700F0004343F0FE4040F400007047F6
:108C38007FEA226216BF08467FEA236301464202A2
:108C480006BF5FEA412390EA010F40F480007047B5
:108C58004FF0000304E000BF10F0004348BF40425B
:108C68005FEA000C08BF704743F0964301464FF097
:108C780000001CE050EA010208BF70474FF00003F3
:108C88000AE000BF50EA010208BF704711F0004334
:108C980002D5404261EB41015FEA010C02BF844604
:108CA8000146002043F0B64308BFA3F18053A3F563
:108CB8000003BCFA8CF2083AA3EBC25310DB01FAAA
:108CC80002FC634400FA02FCC2F12002BCF1004F2E
:108CD80020FA02F243EB020008BF20F001007047BF
:108CE80002F1200201FA02FCC2F1200250EA4C0013
:108CF80021FA02F243EB020008BF20EADC70704759
:108D080053B94AB9002908BF00281CBF4FF0FF31EA
:108D18004FF0FF3000F00CB8ADF1080C6DE904CE4F
:108D280000F008F8DDF804E0DDE9022304B070473C
:108D3800704700BF2DE9F04786468C460846089ED6
:108D4800154674461946002B40F0C1808542B2FA98
:108D580082F245D94AB1C2F1200300FA02FC9540DB
:108D680094402EFA03F343EA0C0C4FEA154EA8B2CE
:108D7800230CBCFBFEF80EFB18CC08FB00F943EAF9
:108D88000C43994528D9EB1808F1FF3704D29945C7
:108D980002D9A8F102072B44A3EB0903A4B2B3FB41
:108DA800FEFC0EFB1C330CFB00F044EA0344A0421B
:108DB80014D92C190CF1FF3304D2A04202D9ACF11A
:108DC80002032C44241A43EA07401EB1D44000236E
:108DD80034607360BDE8F0874746DDE76346F1E736
:108DE80092BB431B01214FEA154EAFB2200CB3FBD7
:108DF800FEFC0EFB1C330CFB07F840EA03439845C6
:108E080061D9EB180CF1FF3004D2984502D9ACF1C6
:108E180002002B44A3EB0803A4B2B3FBFEFC0EFB39
:108E28001C330CFB07F744EA0344A7424DD92C191D
:108E38000CF1FF3304D2A74202D9ACF102032C444F
:108E4800E41B43EA0040C0E7C2F120039540944088
:108E580020FA03F12EFA03F34FEA154E9040AFB211
:108E68000343B1FBFEFC0EFB1C10190C0CFB07F8AE
:108E780041EA0041884522D969180CF1FF3004D233
:108E8800884502D9ACF102002944A1EB08019BB244
:108E9800B1FBFEFC0EFB1C110CFB07F743EA014378
:108EA8009F420ED9EB180CF1FF3104D29F4202D930
:108EB800ACF102012B44DB1B41EA004193E7604619
:108EC800E3E76146F7E76046A4E76346B8E783420D
:108ED80006D916B9002108467CE7C6E900E0F9E79B
:108EE800B3FA83F78FB9834201D3724508D8BEEB32
:108EF800020460EB030301209C461EB9002169E7C8
:108F08003846FAE7C6E9004CF8E7C7F1200CBB4041
:108F18000EFA07F522FA0CF42EFA0CF1BA401C43AB
:108F280020FA0CF3B8404FEA144901431FFA84FEB3
:108F3800B3FBF9F809FB18300B0C08FB0EFA43EAEF
:108F480000439A4540D9E31808F1FF3004D29A4506
:108F580002D9A8F102002344A3EB0A0389B2B3FBA8
:108F6800F9F809FB183308FB0EFE41EA03418E4568
:108F78002CD9611808F1FF3304D28E4502D9A8F123
:108F88000203214443EA0040A1EB0E01A0FB029832
:108F98004145CE46434602D306D14D4504D2013859
:108FA800B9EB020E68EB0403002EA7D0B5EB0E0256
:108FB80061EB030101FA0CFC22FA07F3F9404CEAD1
:108FC8000303C6E9003199E74046C5E74346D9E7B8
:108FD80010F8012B11F8013B012A28BF9A42F7D05B
:108FE800D01A7047034613F8012B002AFBD1181A30
:108FF8000138704700000000002370B586B0CDE945
:10900800043304230D4606460193002879D000292D
:1090180077D0062104A807F0F3FE044660BB01469A
:1090280004AA304607F0D3FE044610BB032101AB67
:1090380002AA04A807F0ECFF0446D0B9019B014638
:1090480018336B4403F8100C022202A806F078FFCC
:109058006A460646012104A807F0AEFF044640B957
:10906800009BF0B2042B11D0052B08D02C706FF0A8
:109078007F0404A807F0EEFE204606B070BD092361
:109088000F282B7036D96FF01504F2E707230F2845
:109098002B70F8D81E4B1F4E33F8100078B3FFF72B
:1090A80055FA19A3D3E90023FFF7BAFAFFF7CAFC68
:1090B800042168600DEB010302AA04A8019107F0DE
:1090C800A7FF04460028D4D1019B014618336B44FE
:1090D80003F8100C022202A806F032FFC0B20F28D3
:1090E800D1D80130C0B2FFF7B7FD3146FFF728F8F5
:1090F800A860BEE7084B094E33F81000CEE70848D1
:10910800D6E76FF01504B7E77B14AE47E17A244041
:10911800E42701000AD7A33FC42701000AD7234048
:109128000AD7A340014B1B68184700BF80C5002021
:10913800014B1860704700BF80C5002007B50B467B
:10914800002102460091034800F076F903B05DF86B
:1091580004FB00BF2D9100002DE9F047058B044664
:109168002807904611D4022905F0070540F0CD8064
:10917800204607F011FB78B10138218B042811D85B
:10918800DFE800F0C3106D85950001290CBF45F09C
:10919800100545F02005258388F31188BFF36F8FEC
:1091A800BDE8F08701F0070AAA4500F0A68000276D
:1091B800B9463E46A368002B00F0BD8041F0080187
:1091C800218388F31188BFF36F8FA168002900F00D
:1091D800BB800D68002900F0B78033465246204610
:1091E800D1F80480C047002D76D02B6829461D464B
:1091F800F0E701F007035A1F012A1BD8002221F0CB
:109208000701062B276889B2C4E9002209D13B4629
:1092180003E0628B013262831B68002BF9D141F0B5
:1092280002012046218307F0B7FA00287BD041F0DD
:10923800200177E0042B0AD121F0070189B22046EA
:10924800218307F0A9FA10B141F020012183218B75
:1092580001F0070AAA4550D00027B946AAE72369B2
:1092680021F0070141F00601062DD3F80090218373
:109278002DD1B9F1000F40D041F00801218388F3C6
:109288001188BFF36F8F20463949C84729E021F07C
:109298000701236941F0040189B2042DD3F8049031
:1092A8002183E6D000274FF0040A3E4682E721F0EA
:1092B8000701236941F0050189B2052DD3F808900B
:1092C8002183D6D000274FF0050A3E4672E70027D3
:1092D8004FF0060A3E466DE72B4687E7B9F1000FC7
:1092E800D1D14FF02003EFF3118883F31288BFF335
:1092F8006F8F238B23F008032383258BEA062ED553
:1093080025F01003238305F007056669218B002EDD
:10931800BFF66FAF00232768C4E9003321F00701C7
:1093280041F001012183218B4FF0000901F0070A68
:10933800AA457FF43FAF002F9BD041F0080121835D
:1093480088F31188BFF36F8F002FC7D03D68394667
:1093580033465246204607F04BFA2F46F4E7AB0651
:109368007FF51AAF25F02003238305F00705FFE6F4
:1093780025080100F0B5024601680A270020074EBB
:109388000B461C780131355D6D0701D41360F0BDC3
:1093980007FB0043A3F13000F2E700BFD12A010028
:1093A8002DE9F84F15469A46D378224A6F2B12F8C2
:1093B80003B080460F460BF0030B29D024D8582B56
:1093C8000CBF10260A26DDF82890324600234046B6
:1093D8003946FFF795FC092AD4B21ED83034B04577
:1093E800E4B277F1000709F8014D01D3D14511D84E
:1093F8002B789B0605D5082E15D1AB7843F00803CA
:10940800AB704846BDE8F88F03F0F703702BD7E739
:109418000826D8E780460F46D7E7BBF1010F0CBFF7
:1094280037345734DBE7102EEBD1AB7843F0100319
:10943800E6E700BFD12A01002DE9F04F8246174622
:109448001C46002597B00391387808B9284649E3A7
:109458007B1C2528049306D00399D0470028C0F226
:1094680041830135F0E11822002110A808F03BFCE7
:109478007B78252B00F0A380002398469E469C46C7
:109488001846791C0E4611F8012B2B2A00F0C680CD
:1094980000F2BD80202A00F0C480232A00F0C48096
:1094A8002BB19DF8483043F040038DF84830B8F1AF
:1094B800000F05D09DF8483043F020038DF8483060
:1094C800BEF1000F05D09DF8483043F010038DF829
:1094D8004830BCF1000F05D09DF8483043F0080330
:1094E8008DF8483028B19DF8483043F004038DF8D2
:1094F80048309DF8483003F04401442903D16FF304
:1095080086138DF848309DF848302A2A43F08003A6
:1095180009968DF8483040F08C809DF8493043F02A
:1095280001038DF84930731C1A782E2A0CBF0121CB
:1095380000219DF8492061F341028DF849200CD1A2
:109548005A1C09925A782A2A40F083809DF84920AB
:10955800023342F004028DF849201A786C2A00F090
:10956800A48000F28680682A00F08C806A2A00F0C5
:10957800A5804C2A00F0AA801A4612F8013B782BE5
:1095880004928DF84B309DF8492000F217816D2B1D
:1095980000F2A980692B00F21181572B00F2BE80DE
:1095A800412B03D0453B022B00F2088104229DF891
:1095B8004A3062F302038DF84A300123CAE0BA1C2C
:1095C80004928DF84B309DF84930DA0740F1FD8060
:1095D80054F8049BB9F1000F07DA9DF84820C9F147
:1095E800000942F004028DF848205E0740F1F68039
:1095F80054F804BBBBF1000F80F2F5809DF84930A8
:109608006FF341038DF849304FF0FF3BEBE02D2A13
:109618000DD0302A7FF444AF012333E74FF0010C1B
:1096280030E74FF0010E2DE74FF001082AE701203F
:1096380028E709A8FFF79EFE099BB3423FF474AFE1
:109648009DF848201390C00F60F341028DF8482020
:109658006AE709A8FFF78EFE9DF848301490C3F317
:10966800400242EAD07262F341038DF84830099B08
:1096780073E7742A26D07A2A7FF47EAF06219DF8F4
:1096880049200CE05A78682A9DF8492006D1012122
:1096980061F3C6028DF8492002336DE7022161F3B8
:1096A800C6028DF84920013366E75A786C2A9DF87E
:1096B800492001D10421EBE70321F0E705219DF8BA
:1096C8004920ECE707219DF84920E8E7BDF8482044
:1096D80022F4F04222F0020242F4804242F00202F6
:1096E800ADF84820DFE76E3BD9B201238B4040F24A
:1096F80082410B4238D113F0240F52D1D8075DD5DF
:1097080003219DF84A3061F302038DF84A3002F0D4
:109718007803A3F140014B424B411BE00120A3F128
:109728005801C9B200FA01F111F4624F7FF43EAF5B
:1097380040F6010631421DD111F4043F3ED09DF898
:109748004A3060F3020302F07802402A8DF84A306A
:1097580034D000239DF84820C2F340010B4363F343
:1097680041028DF848202EE702219DF84A3061F326
:109778000203E8E702209DF84A1002F0780260F33D
:109788000201402A8DF84A1002BF9DF8481041F0A6
:1097980001018DF84810632BDBD1131E18BF01237C
:1097A800D8E703219DF84A3012F0780F61F30203DD
:1097B8008DF84A3014BF01230023CBE79DF84830C9
:1097C80043F001038DF84830C3E79DF94820002A8B
:1097D800ACBF4FF0FF39DDF84C9006E798077FF5EE
:1097E80013AFDDF850B00023CDE913339DF84A30AC
:1097F8009DF8491003F00703012BC1F3C30133D1CE
:10980800CB1E042B04D8DFE803F0214646212100B3
:10981800236801294FEAE372CDE910321CD19DF982
:109828004030DA17CDE9103204349DF8483013F08F
:10983800030650D03A465046049B039907F085F832
:109848000028C0F24F810544049FFDE554F8043B0D
:10985800DA17CDE91032E8E70229E5D11AB243F365
:10986800C033CDE91023DFE7022B24D1CB1E042B14
:1098780004D8DFE803F018101018180001294FF079
:10988800000254F8043B14D00229CDE91032CCD19F
:109898009BB21093C9E7073424F00704F4E80223C5
:1098A800CDE91023C1E754F8043B1093002311932A
:1098B800BBE7DBB2CDE7042B08D1073424F007045B
:1098C800D4E900230834CDE91023AEE7032BACD14B
:1098D80054F8043BDDE79DF84B007828B4D862289B
:1098E8001CD825283FF4B8AD5828ADD1DDE91001C2
:1098F8000DF13E03009312AA0AABFFF751FDBBF12D
:10990800000F074680F29780002F9DD00DF13E088A
:10991800A8EB0700002E4ED001304CE06338152824
:1099280092D801A252F820F0AF990000159A0000D1
:10993800519800005198000051980000519800007B
:10994800159A0000519800005198000051980000A5
:10995800519800009D9A0000399A00005F9A000013
:109968005198000051980000899900005198000012
:10997800399A00005198000051980000399A000067
:10998800BBF1000F109F0ADB5946384608F0EDF985
:1099980007EB0008002F3FF457AF00260BE03846CE
:1099A800FFF720FBF4E700260120109B0DF12908A2
:1099B8008DF828300AAF9DF84A3013F0100205924E
:1099C80000F0838002305B06DDF84CB048BF149B82
:1099D800584448BFC018B9F1000F40F390809DF873
:1099E8004820A9EB0009C2F380035007069300F151
:1099F8008680510679D53EB130460399D047002874
:109A080070DB069B01351E4630226FE019075ABFEE
:109A1800C3F300135E012B26DDE91023002BBFF6EC
:109A280065AF524263EB43032D26CDE910235DE772
:109A380000265BE700269DF848200DF13E03DB1B5E
:109A48006FF386129B458DF848207FF65DAFABEB30
:109A58000303139358E7109880B30DF13E080AAB3F
:109A68000021CDF8008012AAFFF79AFCBDF84A3011
:109A7800BBF1000F03F0EF0343F4F04343F010038E
:109A88000746ADF84A30D5DA00283FF4DDAEA8EB3A
:109A9800000082E7109B07293FF6D6AEDFE801F009
:109AA8000C04060C08080C0C1D70CDE61D80CBE6D6
:109AB800EA17C3E90052C7E61D60C5E6DFF8BC80B7
:109AC8000646A8F10507052075E71A0748BF0130C3
:109AD80079E71046079306920399D047DDE90623F4
:109AE800002804DA17B0BDE8F08F20224B4619464B
:109AF800002903F1FF33ECDC4D4499466D1A2EB171
:109B080030460399D0470028ECDB01359DF84A30F0
:109B1800DA0601D41B0705D530200399D047002861
:109B2800E0DB0135059B33B103999DF84B00D04725
:109B38000028D7DB0135AB4405E030200399D04736
:109B48000028CFDB0135ABEB0503002BF5DC4346E2
:109B58003A465046039906F0F8FE0028C2DB054451
:109B6800A944A9EB0503002B7FF76EAE20200399CB
:109B7800D0470028B6DB0135F3E700BF1A280100FB
:109B88004FF02002EFF3118382F31288BFF36F8F37
:109B98000121044AC2F8401583F31188BFF36F8F7F
:109BA800002070470090034020B1034B800143F030
:109BB80001031847704700BFE023010003F042B8D3
:109BC8002DE9F84305464FF02003EFF3118683F3A0
:109BD8001288BFF36F8F4FF00C090D4B0D4F1C68A7
:109BE800DFF834802CB986F31188BFF36F8FBDE896
:109BF800F883D4E90123002D18BF13462BB198F838
:109C0800142009FB02F2B85C98472468EAE700BF11
:109C180098C900208CC9002050CF0020012270B5BF
:109C2800164B1C7D04F01F039A40D043144B610966
:109C380003EB8103D3E8EF1F01EA0005C3E8E65F01
:109C4800002EF7D10A4213D00E4B0F4D8BB10C23C7
:109C58006343EA185178E85C06F09BFE0020FFF7A2
:109C6800AFFF0C235C4300232A192B51C2E90133AF
:109C780070BD83F31188BFF36F8FEFE750CF0020DB
:109C8800A0C900209B0901008CC900202DE9F041E2
:109C9800324B07461D7D4FF02003EFF3118883F305
:109CA8001288BFF36F8F0C246C432D4B2D4E195D1A
:109CB8001A19002947D007CA06EB040C8CE80700DC
:109CC80000221A5588F31188BFF36F8F0C236B435A
:109CD800F05CF218A8B37B1C10D04FF400400021B0
:109CE800D2F808C0204C0023ECFB00411F4A204654
:109CF800FFF706F80121381A07F05AFF05F0E2FBD2
:109D08000120FFF75DFF1A4B6A0903EB820301226A
:109D180005F01F018A40D3E8EF0F1043C3E8E10FB5
:109D28000029F8D1134B3BB10C2303FB05F0331882
:109D38005978305C06F021FEFFF770FF05F0D6FB7E
:109D48000120BDE8F0810146284600F015F80028FA
:109D5800B8D007C8344484E80700B3E750CF0020E0
:109D680080C900208CC900203F420F0040420F00EC
:109D7800A0C90020830901002DE9F04F85B00E46E7
:109D880003A900F043F84FF4004704464FF0000BD6
:109D98001B4B039DD3F800A0431E1BB203EB4303E8
:109DA800DFF8608005EB830524B9A146484605B075
:109DB800BDE8F08FC446594668680023E0FB07C138
:109DC800114A6046FEF79CFFC44659460190A868B0
:109DD8000023E0FB07C10C4A6046FEF791FFBAF189
:109DE800FF3FA94601D0824505D9731CDED0019BEF
:109DF8001844B042DAD9013CA4B20C3DD4E700BF04
:109E080084C500203F420F0040420F0008B9024BB2
:109E18000B600020704700BFE823010001491022B1
:109E28000A60704710ED00E072B6404080F3118878
:109E3800BFF36F8FBFF34F8F30BF62B6BFF36F8F23
:109E4800704700BF72B6494081F31188BFF34F8F46
:109E580020BF80F3118862B6704700BF40B2002867
:109E680007DB01234109034A00F01F00834042F841
:109E78002130704700E100E0054B420953F82220E9
:109E8800012300F01F0003FA00F01040704700BFE4
:109E980000E100E040B2002801F10101ACBF00F18F
:109EA8006040064B4FEA4111C9B2ABBF00F56140B3
:109EB80000F00F0080F800131954704714ED00E00B
:109EC80030BFFFF7FDBF00BF0B4A08B50B4B22F0B0
:109ED8007F029A60BFF34F8FBFF36F8FD3F888204C
:109EE80022F47002C3F8882004F0E6FC05F03AFC7E
:109EF80000F0C8F904F020FD0080000000ED00E04B
:109F0800094A0A49936809685867996708494B6874
:109F180043F080534B60002383F31188BFF36F8FA6
:109F28009368986F704700BF50CF00204827010002
:109F380000ED00E015498A6882F87DE04FF03000B6
:109F48001044EFF3098C80E8F01F202080F312887A
:109F5800BFF36F8F0E4F4FF00066CA698A603E608C
:109F680092F97DE0506F0023536780F3118802F166
:109F7800300090E8F01F8CF3098802F1000004B566
:109F880006F01EFDBDE804407047000050CF0020D9
:109F980004ED00E01EF0040F0CBFEFF30880EFF3B0
:109FA8000980816911F8021C0229FFD001B506F069
:109FB800F8FC01BD42F8203C009B0C4942F81C3CCF
:109FC800019B21F0010142F8183C029B42F8081C51
:109FD80042F8143C4FF0807342F8043C0023436776
:109FE8004FF43C43203A0265C367704703040100FD
:109FF800084B9860436E83F30B88104681F30988F9
:10A00800002163B681F31188BFF36F8F002200230C
:10A0180006F0F3F950CF002001B572B60B4A9069EB
:10A0280000281EBF0021916107F0E5FB62B6EFF33F
:10A038000580A0F110004FEAC0000549014409C994
:10A048009847BDE8014003490847000050CF002069
:10A058002821010061A00000044B9968D869884252
:10A0680003D003494FF080520A60704750CF002058
:10A0780004ED00E0084B9A6A9A6A986A9A6A9A6AA2
:10A088009A6A9A6A9A6AC0F300506FEA02426FEAC3
:10A09800124240009A62704700ED00E00D4B9A6A48
:10A0A8009A6A9A6A920508D59A6B9A6A120404D534
:10A0B80018B19A6A22F400429A6200209A6A9A6A4F
:10A0C800D205044A58BF9B6A936A43F47F4393625C
:10A0D8000870704700ED00E0124B9A6A9A6A9A6A13
:10A0E800920708D55A6B9A6A120604D518B19A6A6B
:10A0F80022F080029A629A6A9A6A9A6AD0064FF0A7
:10A10800000058BF9B6A074B9A6A920642BF5A6A78
:10A1180022F400525A629A6A42F0FF029A62087068
:10A12800704700BF00ED00E0F0B54A4B04465B689D
:10A1380000258BB0C3F3080385F31188BFF36F8F35
:10A1480002F07F40B0F17F4F16D1D60714D45506E0
:10A1580003D4100704D4012504E012F0040200D04F
:10A168000C4600250022033B8DF80720032B05D859
:10A17800DFE803F02462665F2C46F3E700239DF8CE
:10A188000720CAB902AE04F1200732462068616888
:10A19800083403C2BC421646F7D1099A002D53D0A1
:10A1A800C2F3080121B96FEA52226FEA42220992EA
:10A1B800184602A906F0F3FB0BB0F0BD254BDA6A8E
:10A1C8009107DBD4DA6A002AD8DBDA6A5200D5D5DF
:10A1D8005A69A16942F480725A61BFF34F8FBFF385
:10A1E8006F8F5A6931F8021C22F480725A61BFF3EA
:10A1F8004F8FBFF36F8F4DF60272914201D12368E2
:10A20800BDE79A6AD2B232B101200DF10701FFF71A
:10A2180063FF0346B3E79A6A12F47F4F05D0012023
:10A228000DF10701FFF73AFFF3E79B6AB3F5803FAB
:10A23800A4D3FFF71FFFECE700200DF10701E6E7C5
:10A2480000200DF10701EDE722F4FF7222F0010270
:10A25800ADE700BF00ED00E0044B5A6942F0100280
:10A268005A615A6942F480625A61704700ED00E011
:10A27800EFF30880EFF3098101B57246FFF754FF49
:10A2880001BD00BF002320210348C2180133412B20
:10A2980082F80013F9D1704700E100E0002080F354
:10A2A8001488BFF36F8F002080F30A8880F30B882F
:10A2B800FFF784FC00200E490860BFF34F8F0D485C
:10A2C80080F3088800F03EF8202080F311880A48BF
:10A2D8004FF40061401880F30988EFF314800221DD
:10A2E800084380F31488BFF36F8FFFF7EDFD00007C
:10A2F80094ED00E0A0E2002060D50020BFF34F8F6E
:10A308000549064BCA6802F4E0621343CB60BFF309
:10A318004F8F00BFFDE700BF00ED00E00400FA0525
:10A32800002318460649D1F89020C2F30722934229
:10A3380000DB7047C1F89830C1F8A0000133F6E798
:10A3480000ED00E010B572B6002484F31388FFF71F
:10A35800E7FF23464FF0FF300C4A03F12001013399
:10A36800102B42F82100F8D100234FF0FF30074AA4
:10A3780003F160010133102B42F82100F8D162B6D5
:10A38800BFF34F8FBFF36F8F10BD00BF00E100E038
:10A39800084B9B6883420BD1EFF3058343B1064B0F
:10A3A8005A6842F080525A605A6A22F400425A624D
:10A3B80005F066B950CF002000ED00E01FB5094C4C
:10A3C800094A23460121094800F0EAF800230393CB
:10A3D800074B0121E41A01A80193029400F0EAF85E
:10A3E80004B010BD0000042080C50020E82301004F
:10A3F80088C7002010B50C7A0B6804F01F0223F000
:10A408001F031A43CB68640923F01F03054943EA75
:10A41800440343F00103C1F89800C1F89C20C1F837
:10A42800A03010BD00ED00E02DE9F04F0F461446B6
:10A4380006464FF000084E4D85B0B84580F294802E
:10A44800D6F80490B9F1000F36D0B9F11F0F40F2D9
:10A45800898019F01F0F40F08580D6F800A01AF007
:10A468001F0F7FD1504606F0B1FA834609EB0A0068
:10A47800013806F0ABFA834574D11BF1160F71D081
:10A488005C456FDDC5F898B0D5F89C10C5F898B054
:10A49800D5F8A03021F01F0143F01F0AD6E9003299
:10A4A8001A44994202F1FF391ED1CA4508D13146F2
:10A4B8005FFA8BF006F093FA08F101080C36BCE756
:10A4C8003146C5F898B0D5F89C3022F01F0203F049
:10A4D8001F031343C5F89C30E0B206F080FA10F170
:10A4E800160F3FD0441CE7E7C5F898B0D5F8A02070
:10A4F800013B23F01F0302F01F021343CA453146F4
:10A50800E0B2C5F8A030E8D006F069FA10F1160FED
:10A5180028D0C5F898B0D5F89C209DF808300AF1E5
:10A52800FF3A62F304038DF80830D5F8A0309DF89F
:10A5380008205B0863F347128DF80820D6E900323B
:10A548001344009323F01F03411C5344A3EB090356
:10A55800C8B223F01F030F28039303D86946FFF7F7
:10A5680049FFBFE76FF01504204605B0BDE8F08F3E
:10A5780000ED00E00522044BC3F89420BFF34F8F91
:10A58800BFF36F8F704700BF00ED00E0BFF35F8F30
:10A598000022024BC3F89420704700BF00ED00E092
:10A5A80010B5034C2278FFF73FFF207010BD00BFA5
:10A5B800A0CF00202DE9F74F294D8A4606464FF0D7
:10A5C8000008AB46274FD0451BDAD6F80490B9F1FE
:10A5D800000F3FD031680846019106F0F7F901995C
:10A5E800044609EB0100013806F0F0F984424FF007
:10A5F80014021D4B08D002FB08F36FF015024BF84C
:10A60800032003B0BDE8F08F14F1160F2C60F8D0CA
:10A618001978A142F5DD02FB08B0C7F89840C7F8E1
:10A628009840D7F89C4000F10801007B64F30400CF
:10A638000871D7F8A0000C79400860F347140C7132
:10A64800D7F89C1021F01F016960D7F8A01021F0FD
:10A658001F01296108F1010814350C36B3E700BF62
:10A66800A4C9002000ED00E0A0CF002038B50E4DB1
:10A678002C68102C15D80020FFF788FF0B4B0C4ACC
:10A68800C3F8C020844205D10A4B00201C70FFF794
:10A6980071FF38BD696801EB0011FFF7ABFE0130AF
:10A6A800F0E74FF0FF30F4E7F423010000ED00E09D
:10A6B800AAFF4400A0CF0020014B1860704700BFDC
:10A6C80088C5002010B5074C2368C2180648C0F199
:10A6D800005101F580218A4236BF22604FF0FF30D9
:10A6E800C01810BDB8C90020A0E80020084B70B5FC
:10A6F800C31A0D4607499B10044659434022064891
:10A7080006F0B5F92B4601462046BDE870401847CB
:10A71800D0C90020B76DDBB6C8200100402373B54F
:10A728000B4C0093041B0B460D460A49A4106143C9
:10A738000646094A094806F0C7F9011E05DA3046F7
:10A748002B4602B0BDE87040184702B070BD00BF8C
:10A75800D0C90020B76DDBB63D0B0100C820010051
:10A7680070B50022012104460520FFF793FB0F482E
:10A7780002F002FB0E4B984215D102F00DFB266940
:10A788000C49304606F058F800280BDB01253564E3
:10A798002469084904F11C0006F04EF8002801DB82
:10A7A8000020E56470BD6FF00400FBE7F5A700002A
:10A7B8000000AD0B1C24010001460C23002270B5DB
:10A7C8004B430848C4184033D4E90E561844A263D2
:10A7D80006F03AF92DB132462B46BDE870400248E2
:10A7E800184770BDD0C90020C820010010B1012849
:10A7F80004D07047034B1B6C5B0701D1FFF7DCBF2C
:10A80800704700BFD0C9002008B54FF02003EFF310
:10A81800118183F31288BFF36F8F114A136843F0D5
:10A8280002001060DA0708D481F31188BFF36F8F34
:10A83800BDE80840012002F0BFBA0A4BD3F80C2447
:10A84800D3F80C34D307EFD5074806F0FDF881F3A9
:10A858001188BFF36F8FBDE808400020FFF7ACBF39
:10A8680020CA00200050004010CA00201FB5002256
:10A878000123CDE902236B46084ACDF800D0CDF874
:10A8880004D006F050F9002805DB4FF4804200237D
:10A89800684604F0B1FA05B05DF804FB5B0B0100F3
:10A8A80010B54FF02003EFF3118483F31288BFF340
:10A8B8006F8F074A136823F00201DB07116002D487
:10A8C800012006F03EFD84F31188BFF36F8F10BDA1
:10A8D80020CA00202DE9F041012207463549D1E878
:10A8E800EF3FC1E8E02F0028F9D133B932493348A6
:10A8F8004B60CB608A6005F0B2FF7B1E012B28D825
:10A90800012F06D12E4BD3F81C3403F00303022B7E
:10A918001FD006F065FF0546E8B92A4B1B78D3B16E
:10A9280002220646264BC3F80823254CDFF89880F8
:10A93800D4F81834D4F81824D20316D503F0030336
:10A94800022B01D0012F10D175B386F31188BFF304
:10A958006F8FBDE8F0814FF02003EFF3118683F38A
:10A968001288BFF36F8F0125DFE7C5B13046FFF7C7
:10A9780069FAD4F81835DBB2012BD9D1D4F80421FF
:10A98800002AD5D00022C4F80421D4F804210222D8
:10A99800C4F818252022C8F88021A360C8E7002140
:10A9A800212004F04DFEE4E70222054BC3F80423FE
:10A9B800CFE700BFCCC90020BCC90020ECC90020EB
:10A9C800005000405AD4002000E100E008B50748D4
:10A9D80006F060FE38B10648FFF76EFE0448FEF741
:10A9E800A7FB002008BD6FF01200FBE71021010053
:10A9F800FDA900000A2838B50446074D04D1AB6804
:10AA08000D2128465B689847AB6803485B68E1B24C
:10AA18009847204638BD00BF1021010030B5406876
:10AA280001F01F04057BB2F5001F85B044EA451408
:10AA380005D1204602F084FC002005B030BD002579
:10AA4800B2F5800FCDE9025514D1B3F1007F0CBFE8
:10AA5800042305238DF8083000232046194602AA4E
:10AA680002F0A4FA1C4B984233D10121204602F08F
:10AA780023FCE1E7B3F1C06F20D0B3F1007F14BF2E
:10AA8800012302238DF808308368CB40D907E3D42B
:10AA9800B2F1A07FE0D1114A04F01F03803352F8CD
:10AAA8002330DB07D8D40DF107052946204602F0EC
:10AAB800AFFB0B4B984203D00395CDE70323E1E7A7
:10AAC800284602F0F3FB044B9842F5D06FF00B00D8
:10AAD800B3E76FF01500B0E70000AD0B0025844028
:10AAE8000400AD0B10B502F0D1FB044668B902F0C2
:10AAF800A5FB084B98420AD12146074802F082FB81
:10AB0800224605213120FFF7C5F9002010BD6FF05E
:10AB18000400FBE70000AD0B25AB0000430970B54E
:10AB280007D10B4B596821B101250C68094E8540A6
:10AB380001B970BD8A682A4002D030464B689847F0
:10AB48001CB1236821461C46F2E72346FAE700BFFA
:10AB580024CA0020E02001002DE9FF41476801F0E8
:10AB68001F053B7B144645EA43150E4628460DF162
:10AB7800030102F04DFB14F4403F80460BD12846F8
:10AB880002F006FC3C4B984503D19DF8030002F007
:10AB980087FB00200CE000232846194602AACDE9CD
:10ABA800023302F003FA344B984204D06FF01500D8
:10ABB80004B0BDE8F081804503D19DF8030002F0A0
:10ABC8006FFBA30349D540F206332340B3F5837FD7
:10ABD80019D00CD8062B17D004D8ABB1022BE5D16D
:10ABE800042311E0B3F5807FE0D101230CE040F2AB
:10ABF8000222934226D0B3F5407F25D0B3F5007FDB
:10AC0800D4D1022300E007238DF8043084F4803384
:10AC1800C3F30043E0068DF805304CBF0323C4F3AB
:10AC2800401321038DF8063010D501237A68B3400C
:10AC380093600022284601A902F064FA0E4B98425C
:10AC4800A7D0B3E70523DFE70323DDE7620341BFAE
:10AC580001237A68B340D360EBE7E3064FF00003C3
:10AC68004CBF0324C4F340141A46284601A98DF8A2
:10AC7800044002F09BF9E1E70000AD0BF0B54B7919
:10AC8800012B26D0032B21D110258B79032B1DD125
:10AC9800CE790EB1012E19D10A7912B1022A15D135
:10ACA8000E220B684468B3F5164F276867D02DD875
:10ACB800B3F5165F66D016D8B3F5966F64D00AD888
:10ACC800B3F5967F63D0B3F5167F63D06FF0850038
:10ACD80054E00025D9E7B3F5166F5ED0B3F5965F5B
:10ACE800F4D1384B3CE0B3F5E14F59D007D8B3F570
:10ACF800615F57D0B3F5964FE8D1334B30E047F654
:10AD08001224A342E2D14FF4000329E0B3F5613FD6
:10AD18004AD013D8B3F5963F49D009D84DF6C02488
:10AD2800A34246D0B3F5614FD0D14FF46B0317E07F
:10AD3800B3F5E13FCAD14FF0EB7311E0B3F5612FE2
:10AD48003AD008D8214CA34239D0B3F5E12FBDD170
:10AD58004FF0E86304E01E4CA342B7D14FF0805394
:10AD68000469C7F82435436835431B682A43C3F888
:10AD78006C25231D03C983E803000020F0BD4FF4B0
:10AD88001D03EDE7134BEBE74FF49E23E8E74FF481
:10AD9800A033E5E74FF41C33E2E74FF41D23DFE768
:10ADA8000D4BDDE70D4BDBE74FF06C73D8E70C4B31
:10ADB800D6E74FF46503D3E74FF07063D0E74FF061
:10ADC8008063CDE700B0130000A04E0090D00300D0
:10ADD80040420F000050270000C0750000F03A0004
:10ADE80000903A012DE9F74380460022012108200E
:10ADF800FFF750F80820FFF731F80021D8F8047061
:10AE0800D8F810603C6801AAC4F80015C6F800809C
:10AE1800D7F80C90484605F077FF051E4DDB019BDF
:10AE2800D9F800201979186800F0B2FA051E44DB39
:10AE38004046311DFFF722FF054600283DD17B68BB
:10AE4800990713D506F1180002F02AF81E4B98420C
:10AE580037D1337E43F00043C4F8A031C4F88C30B6
:10AE68000123327E9340194AC2F804350823C4F8F6
:10AE780000353B7A53B9C4F81031D4F810317369EE
:10AE8800C4F834350123C4F8383523607B689A0741
:10AE98005CBF4FF48073C4F804337B68DB0644BF9F
:10AEA8004FF48003C4F804333369C4F844350023ED
:10AEB800C4F848350123A360E360284603B0BDE821
:10AEC800F0836FF00405F8E70000AD0B0070014057
:10AED800F8B504460D46076906F082FCB0B92E4B5A
:10AEE8001B789BB16426606805F0A6FE00BB0120B4
:10AEF80006F025FA013EF6D10021212004F0A0FB3E
:10AF0800F0E786F31188BFF36F8FF5E74FF0200362
:10AF1800EFF3118683F31288BFF36F8F60683146B1
:10AF280005F08AFE90B986F31188BFF36F8FEDE7BD
:10AF38004FF02003EFF3118683F31288BFF36F8F6E
:10AF48006068314605F078FE0028DAD03B691D704C
:10AF5800626838691368C3F844050120C3F84805D6
:10AF68000020C3F82001D3F82051C3F858015268D3
:10AF7800D3F85801D20608D5082062681268C2F8CA
:10AF880000054FF48002C3F8042301229A6081F37C
:10AF98001188BFF36F8FF8BD5AD400200123834076
:10AFA80070B5DC430B4AD2E8EF1F01EA0405C2E89A
:10AFB800E65F002EF7D14FF4803282400648C0F891
:10AFC8000823BFF35F8FBFF36F8F0B4214BF0120BD
:10AFD800002070BD34CA00200050014070B40E49F2
:10AFE80022F07F46D1E90034D01AC31844F1000496
:10AFF800C1E90034A6F50013B3F5400F09D2074B99
:10B008001B681A0A1B069C19054B42F10005C3E987
:10B01800004570BC04F08CBC98C7002038CA0020DA
:10B02800A0C70020D9B101230D4A8340D2E8EFCF51
:10B038004CEA030CC2E8E1CF0029F7D14FF4803382
:10B04800084A8340C2F80433074BD3E8AF3FC340F4
:10B05800DB0742BF4FF40012044BC3F800217047CE
:10B0680034CA00200050014030CA002000E100E04E
:10B078000D4B1868010A0006BFF35F8F0B4BD3F81E
:10B088000435181841F10001B3F5801F0AD2084BA6
:10B09800D3E90023904271EB030303D210F18070CF
:10B0A80041F10001704700BF38CA0020005001403C
:10B0B800A0C700202DE9F74F16461F460446FFF7A4
:10B0C8006DFF0090FFF7D4FFB04271EB070350D239
:10B0D800384B301A67EB0101984271F1000165D2D3
:10B0E800354B03EB0413D3E902239F4208BF964272
:10B0F80049D04FF48039314909FA04F9204626F03D
:10B108007F4BC1F8489305F0F3FD4FF0030A58460A
:10B1180004F15005AD00ADB205F1804504F5A87302
:10B12800274A05F5A8350193DDF804C020F07F43D0
:10B1380041F82C30C1F84493D1F80485A0EB0800FD
:10B14800033820F07F4090421DD9286860B1D1F8BB
:10B158000485A8EB0B0020F07F40B0F5000F12D952
:10B16800204605F0C5FD164A0AEB08000AF1010A57
:10B17800DAE70123134AA340D2E8EF0F1843C2E8E5
:10B18800E10F0029F8D100250B490C98230101EBA8
:10B198000412C850C2E902670D9B5360204600990B
:10B1A800FFF740FF284603B0BDE8F08F6FF01505A4
:10B1B800F4E700BF0100800088C70020005001406C
:10B1C800FDFF7F0030CA002073B500244FF0FF3028
:10B1D8004FF0FF31164D174BC5F80845C3E902017A
:10B1E8004FF4803302264FF40012C5F80433124B93
:10B1F8000121C5F804631520C3F880212246FEF713
:10B2080049FE1520FEF72AFE01230C4AAB602B608D
:10B2180013600B4B0B4A0093204600230194FFF761
:10B2280049FF3046FFF756FB204602B070BD00BF0D
:10B238000050014088C7002000E100E034CA002027
:10B24800E5AF0000FFFF7F002DE9F7432E4BD3F851
:10B25800042390070BD5D3F8042142B10022C3F888
:10B2680004212A4AD3F80431136801331360264AAB
:10B27800D2F80433D90327D5254BD3E8EF1F21F0A3
:10B288000100C3E8E40F002CF7D1CB0702D4D2F8B1
:10B298004031CBB100251C4CC4F84051D4F84031A2
:10B2A800FFF7E6FE4FF02003EFF3118283F31288D5
:10B2B800BFF36F8F174BD3E90267B042B94106D28B
:10B2C80082F31188BFF36F8F03B0BDE8F0834FF0AE
:10B2D800FF38D3E900104FF0FF391D60C3E9028938
:10B2E8004FF48033C4F84833C4F84051D4F840319F
:10B2F80082F31188BFF36F8F0029E5D000903246A2
:10B308003B4628468847DFE70050014038CA0020FE
:10B3180030CA002088C70020431C13B521D001285B
:10B3280021DD124A124B9042D4BF04461C46FFF757
:10B338009FFE104B0E49D3E90023801AB0F5000F89
:10B3480028BF002404448C4228BF0C4600200A4928
:10B35800A2180190009143F10003FFF7ABFE02B081
:10B3680010BD034CE3E70124E1E700BFFEFF7F00C7
:10B37800FFFF7F0098C70020E5AF000008B5FFF782
:10B3880077FE024B1B68C01A08BD00BF98C7002093
:10B398002DE9F04101273F4E00EB8101814202D1A6
:10B3A8000020BDE8F081056805F07F03C5F343245C
:10B3B8007F2B4FEA154508BF4FF0FF33192D66D88C
:10B3C800DFE805F00D161B1E212D1E65656565312C
:10B3D80051656565656565656565545C5F62C2F85C
:10B3E8000C3503F01F0507FA05F5B560012502E0E5
:10B3F800C2F814350025AC461CE0C2F80835F0E761
:10B40800C2F81035F6E70025C2F8083503F01F0C1E
:10B4180007FA0CFCC6F80CC04FF0010C0AE0C2F8A1
:10B428000C350125F2E7C2F80835002CE2D10025D9
:10B438000624AC4650F804EB24020EF40058B8F188
:10B44800000F1CBF4FF0000C0125CEF3C11E44EACB
:10B458008E0403F01F0344EA0C0444EA45048033D5
:10B4680046F823409AE7C2F80C35DEE7C2F86035A3
:10B478000568C5F38035002DD3D0B2E7C2F864352E
:10B48800F6E7C2F86835F3E7C2F86C35F0E76FF015
:10B49800850086E70025844070B51A4D1A4C2B7834
:10B4A80033B9C4E90033194806F0B4F901232B7005
:10B4B800002201212A20FEF7EDFC154803F0DAF8F6
:10B4C800144D28604FF0FF324FF0FF330F4803F060
:10B4D80089FB206820B10468043003F06DFC44B98E
:10B4E8000A4803F0F9FB0C4C0C4EB44204D300207C
:10B4F80070BD20462468EFE7D4E9003128689847F2
:10B508000834F2E7A3CF002054CA002040CA002024
:10B51800D82401003CCA0020042C0100142C01008E
:10B52800F0B50F4B01461A680E4B0B25002618463E
:10B538001F46B84201D3013D04D11846013A1960AB
:10B548005A60F0BD04688C42FBD03CB14468141BBF
:10B55800A642BCBF034626460830EAE70346ECE7A6
:10B56800CCCA0020D8CA00200020054BC3E900003F
:10B57800044BD3E8EF2FC3E8E10F0029F9D1704756
:10B58800D0CA0020CCCA00202DE9F04786B0054675
:10B598000E4606F07CF820B96FF06D0006B0BDE8E5
:10B5A800F08706F025FB33680446002B0F4604D1CC
:10B5B80003F0C4FF6FF00A00F0E7BCBF4FF0FF33A1
:10B5C80033600122002101A806F0A4F9E846059598
:10B5D8004FF02003EFF3118A83F31288BFF36F8FC4
:10B5E80004F048F8FFF79CFFDFF818914268D9F893
:10B5F80000309A426DD10023434D00936B68002BB5
:10B608006ED1C5E900888AF31188BFF36F8F33685C
:10B618005A1C6AD04FF4004E40F2E730002123EA6A
:10B62800E37C4FF47A720023CCFB0E01FDF768FB34
:10B6380002460B4601A803F0DFFB4FF02003EFF3AF
:10B64800118A83F31288BFF36F8F00222B685BB1D6
:10B65800434554D10099002A4BD16A6829609A421F
:10B6680000D169600023009304F004F8FFF758FF45
:10B67800D9F8003043608AF31188BFF36F8F06F062
:10B6880006F8002888D035686B1C27D006F0B0FA79
:10B698004FF47A7EA0FB0E320EFB0121A4FB0E4272
:10B6A8000EFB0722DB0BE40B43EA414344EA424426
:10B6B8001B1B4FEAD1314FEAE57C61EBD231ED1A21
:10B6C8006CEB010CBCF1000FB8BF002535602DB93B
:10B6D80070E743608AF31188BFF36F8F00205DE73E
:10B6E800C3F80080C5F804808DE74FF0FF32134699
:10B6F800A0E711606968994208BF6A60B2E71A4614
:10B708001B68A4E7CCCA0020D0CA002070B4046823
:10B71800094B2CB19C4203D303F17005AC4206D30C
:10B72800064D2C78661C03EB04132E70036000682A
:10B7380070BC06F0EFB800BF5CCA0020A4CF0020A0
:10B7480038B505460A4BD3E8EF1F0131C3E8E21FBD
:10B75800002AF8D1074B1C6804B938BD6369AB42AD
:10B7680000D015B9201D03F027FB2468F4E700BFBB
:10B77800CCCA0020D0CA002001460022002301487C
:10B7880006F007B828CB00200146014806F00BB8A0
:10B7980028CB0020014600220023014805F0F9BF0C
:10B7A8003CCB00200146014805F0FDBF3CCB002002
:10B7B80008B54FF480620649064805F095FFBDE8D4
:10B7C80008404FF402520449044805F08DBF00BFF9
:10B7D800A5CF002028CB0020E88400203CCB002007
:10B7E80008B5024802F02AFD002008BD61B8000033
:10B7F8002DE9F843144E154FDFF85480002200233A
:10B80800304603F0A5FA0546C8B9BDE8F883237A9F
:10B81800DA0706D49B0704D4216851B948466368FF
:10B8280098470C34BC42F2D32946404605F0BBFF8A
:10B83800E4E7484606F0A5FA0028EFD1F1E7054C01
:10B8480005F10409EEE700BF74C7002008C700200F
:10B8580024C70020B4C60020F8B505460026194CB8
:10B86800194FBC4218D366B32846FDF7BBFB00222C
:10B87800411D0023154805F08CFF044608B32946EE
:10B88800043006F045FA2146114806F038F8BDE8BC
:10B89800F840104803F0CEBB237ADA0705D42168B4
:10B8A80029B9237A9B0708D401260C34D9E72846FE
:10B8B80006F067FA0028F4D1F7E728466368984746
:10B8C800F3E7F8BDB4C6002008C7002024C700204D
:10B8D80074C70020A8C50020094B1B5C03F00303B4
:10B8E800022B08BF2038C0B2A0F14103192B04D99C
:10B8F800A0F15F035842584170470120704700BFCC
:10B90800D12A0100A0F12C03DBB2112B9DBF034803
:10B91800D84000F001000020704700BF014002003D
:10B92800F8B505460024094E56F8047B3846FDF75D
:10B9380059FB39460246284606F0F2F920B101348F
:10B94800042CF1D10020F8BD0120FCE700250100FE
:10B958002DE9F0430468A3B0237880460E461546C7
:10B968000094002B00F0CD80674B1B78062B13D179
:10B978000020621C00921146074612F8010BFFF7DF
:10B98800ABFF0028F7D107B100910B1B22463146C7
:10B99800284605F097FA46E0013B082B43D8DFE834
:10B9A80003F064495AA00D421C3F050022460021BD
:10B9B800134612F8010B60B10121F9E72246002174
:10B9C800524F134612F8010B385C10F0440F40F048
:10B9D800968001B100931B1BD8E7684605F0E9F98A
:10B9E8000022009B49481F4613F8011B415C490788
:10B9F80010D102B100973B1B22463146284605F07C
:10BA080061FA3B783D2B07D17B783F2B0BD102376E
:10BA1800009708E00122E6E73F2B04D10137F7E75A
:10BA2800284605F025FA0020009BC8F8003023B00E
:10BA3800BDE8F08327463A78104605F0B1F93B4651
:10BA4800013708B9002AF6D12246314628461B1B81
:10BA580005F038FADCE727463A783B46222A07F110
:10BA68000107F1D0002AF7D1EEE720460A2201A902
:10BA780004F066FA0124019B02900093009B187859
:10BA8800292823D010B303F10109FFF73BFFCDF8B4
:10BA9800009008B9274617E00A2201A9484604F091
:10BAA8004FFA22AB671C03EB840444F8800C484629
:10BAB800FDF798FA04460198FDF794FA844206D0F7
:10BAC800019B202F009302D03C46D7E72746BB00B6
:10BAD8003146284602AA05F018FA009B0133009364
:10BAE800A1E70A22204602A904F0AEF90B46029902
:10BAF800024600912846314605F0CFF993E7012127
:10BB08005FE74FF0FF3092E7A6D30020D12A01006B
:10BB180010B50446FDF766FA012821D923781249A1
:10BB2800CA5C02F00302022A08BF203B412B17D14E
:10BB38006378CA5C02F00302022A08BF203B542B38
:10BB48000ED1A27802F0F703232B0BD0252A09D0B7
:10BB5800104605F025F910B9B2FA82F0400910BD77
:10BB68000020FCE70120FAE7D12A01002DE9F04185
:10BB780006460468DFF88C8100293DD1207805F05D
:10BB880003F9614F054660B30623052220465F4945
:10BB98003B7006F0C5F8F8B1052220465C4906F06E
:10BBA800BFF8C8B10B2220465A4906F0B9F898B137
:10BBB8000A222046584906F0B3F868B10B222046FD
:10BBC800564906F0ADF838B107222046544906F028
:10BBD800A7F8B0FA80F56D0988F8005000203460A5
:10BBE8004CE098F8003053B92046FFF791FF002841
:10BBF8004ED007233B70F1E798F800301BB10222C2
:10BC0800414B1A70EAE7002944DD2246154612F82E
:10BC1800010B05F0C5F80028F8D12846FDF7E2F930
:10BC280003282DD92B783F4AD15C01F00301022962
:10BC380008BF203B412B23D16B78D15C01F0030175
:10BC4800022908BF203B542B1AD1AB78D15C01F0F4
:10BC58000301022908BF203B2B2B0AD0252B0FD12B
:10BC6800EB78D25C02F00302022A08BF203B582B73
:10BC780006D009226FF00100234B1A70BDE8F0814D
:10BC8800207805F081F828B14FF0FF303460F5E7EF
:10BC98000223AFE72278234B9B5C5B070AD42D2A4B
:10BCA80008D02B2A06D0222A07D10322164B0134AA
:10BCB8001A7093E70422144BA3E7282A04D101221F
:10BCC800114B14441A7089E7104605F069F888B1D9
:10BCD8000D490B78042B0AD12246144612F8010BA1
:10BCE80005F05EF80028F8D105230B7076E7082BDD
:10BCF8003FF474AF1046FFF705FE0028C4D00822B1
:10BD0800014B7EE7A5D30020A6D30020912801008F
:10BD1800972801009D280100A9280100B4280100E6
:10BD2800C0280100D12A01002DE9F74F894616469F
:10BD38001F468046002800F09A80002A00F097806D
:10BD48005368002B00F093800024104605F06BF830
:10BD580042463368CDF804809F4228BF1F46454BB2
:10BD68001C70454B1C701146087805F019F82546DB
:10BD7800013204460028F6D105B101910025DFF80B
:10BD8800FCB0019B1A78002A48D0AF4246D91BF86C
:10BD980002202946120748BF013301A848BF019372
:10BDA800FFF7E4FE431C39D0023008BF00253246B5
:10BDB800294601A808BFCDF80480FFF7C9FD013066
:10BDC8002CD0019A1078FFF79DFDB0B1507804F09F
:10BDD800E7FF78B10135BD423CD0294601A8FFF7FD
:10BDE800C5FE01301AD03246294601A8FFF7B0FD3A
:10BDF800013013D0019B01330193019A107804F0AC
:10BE0800CFFF10B30132117892460846013204F090
:10BE1800C7FF0028F7D171B9CDF804A0019D1CBB5C
:10BE28002B78CBB90020B9F1000F01D0C9F8005028
:10BE380003B0BDE8F08F084604F0A6FF0028EBD158
:10BE48005046FFF76DFD0028E6D10135BD4208BF19
:10BE5800012496E70446E1E72846FFF761FD00283C
:10BE6800E0D16FF00A00DEE76FF00600DBE76FF065
:10BE78001500DDE7A6D30020A5D30020D12A0100B4
:10BE880070B5A4B0002148220546684605F02BFF8E
:10BE980000F0D4F9274E014688B933787BB1264C97
:10BEA8002378032B27D948220DEB020005F01BFF4E
:10BEB800607840B1302105F0E1FE044620B9002346
:10BEC800337024B070BD044614AA29461A48239436
:10BED80000F05CFCC21D01D0012805D8072312A878
:10BEE8008DF8483000F0B2F9204605F0BCFE2198E4
:10BEF80005F0B9FEE3E7284605F0C7F9044628B17E
:10BF0800102105F0BBFE04460028D8D0284602A917
:10BF18000F9400F013FBC31D01D0012805D8072397
:10BF280068468DF8003000F091F9002CC7D0204603
:10BF3800DEE700BF49D400204AD4002010B50E48DF
:10BF48008EB002F081F9044690B90C4802F07CF9F1
:10BF580058B132210A4A01A802F0C2F928B90949A0
:10BF680001A805F00EFF00B1047020460EB010BD08
:10BF78006FF00D04F9E700BFEB2801008F290100DD
:10BF8800F6280100FE2801000023F0B58DB00D460B
:10BF98000646CDE90333CDE90633CDE909338DF8FB
:10BFA80014308DF820308DF82C3000284AD0002924
:10BFB80048D0274CA0212046264A237002F090F949
:10BFC800002842D120462C2105F095FE0446002881
:10BFD80036D16FF04C000DB0F0BD002CF9D0601CCC
:10BFE8002C2105F088FE013F0446F6D10028F0D048
:10BFF800811C082203A805F0A5FE601C2C2105F071
:10C008007AFE04460028E4D0811C082206A805F020
:10C0180099FE2C21601C05F06EFE20B1811C0822BF
:10C0280009A805F08FFE01AB09AA06A903A800F02C
:10C0380031F90028CFD1019B3360029B2B60CAE7FE
:10C048000C27CCE76FF01500C5E76FF00D00C2E7CD
:10C05800A7D30020032901004822F0B50024054693
:10C06800A5B000210DEB020005F03DFE302221466F
:10C0780006A88DF80E4004AF05F035FE0DF10F034C
:10C088007C6001210093284606AB0DF10E02049452
:10C0980000F07EF9002871D19DF80E3003F0FB0303
:10C0A800012B05D1089B01336AD0374802F084FE82
:10C0B80000F0C4F8002861D1344A9DF80E30117898
:10C0C800994207D08DF8480012A813708DF85030A7
:10C0D80000F0BCF82E4B08999A68914203D1DB68AE
:10C0E800099A9A4219D00423294D06AC8DF8483094
:10C0F8000FCC0FC50FCC0FC594E80F0085E80F00D3
:10C1080014AE06AD0FCD0FC60FCD0FC694E80F00C5
:10C1180086E80F0012A800F099F81E4A9DF80F3023
:10C128001178994208D01370052212A88DF848207A
:10C138008DF8503000F08AF89DF80E3003F0FB03BC
:10C14800012B1BD1384605A9FFF71EFFB0B9124BCA
:10C1580004991A6891421A4603D15B680599994275
:10C168000CD097E8030001238DF8483014AB82E81F
:10C17800030083E8030012A800F068F825B0F0BDBA
:10C1880004238DF80E3093E758CB002048D40020C4
:10C19800A8C7002047D4002050CB00200428F8B5B9
:10C1A800054606D8042810D8DFE800F01912190F40
:10C1B8001900A0F11403DBB2182B06D8012210498C
:10C1C8009A400A420BD1012B02D06FF0150404E00B
:10C1D800FFF7B4FE18B16FF00D042046F8BD2946EC
:10C1E800084802F031F804460028F4D1064E074FFB
:10C1F800BE42F2D2D6E90031284698470836F7E71A
:10C20800010C300110290100042C0100042C01004C
:10C2180008B5064B1A7822B100201870FFF7BEFF48
:10C2280008B9002008BD6FF00D00FBE74CD40020D2
:10C23800014802F051BD00BF4CC70020024B1868EE
:10C24800B0FA80F04009704768CB002038B50F4C31
:10C2580005462368C3B14FF0FF334FF0FF320C4857
:10C2680002F0C0FC23680BB11C681BB9BDE838405C
:10C27800FFF7DEBF28465B6898471CB12268234653
:10C288001446F2E72246FAE738BD00BF68CB002023
:10C298004CC700202DE9F7434FF0000807460E462B
:10C2A80014461D46CDF80480FCF79CFE082804D0EF
:10C2B8006FF0150003B0BDE8F0833046FCF792FE3E
:10C2C8000828F5D13288B378ADF804204146022217
:10C2D80001A88DF8063003F033FE0728E8D8294B6B
:10C2E800022253F820904146F01C03F029FEB9F1D0
:10C2F800000F21D14FF0FF332B6014B32046FCF719
:10C3080071FE08281DD12288A378ADF804200021E9
:10C31800022201A88DF8063003F012FE0728C7D8BC
:10C32800194B022253F820600021E01C03F008FE9C
:10C338000EB346432E6004E009FB00F0286001308C
:10C34800DBD03A88BB78ADF804200021022201A88E
:10C358008DF8063003F0F4FD0728A9D80B4B02220C
:10C3680053F820400021F81C03F0EAFD34B1604383
:10C37800686000209EE74FF0FF36DBE74FF0FF30A4
:10C38800F6E700BF4425010024250100242501000B
:10C398002DE9F0431D4600238BB00393ADF8103010
:10C3A8008DF8123016460923072281460F4605A844
:10C3B8000B21CDE90023DDF8488004F021FD044677
:10C3C80038BB014605AA484604F001FD0446E8B911
:10C3D80001466B4603AA05A804F01AFE0446A8B94C
:10C3E8003C4A009903A804F0CDFE78B107AAC7F12A
:10C3F800020105A804F0E0FD002858D1079B082B8E
:10C4080021D00ADC052B1ED96FF0150405A804F00D
:10C4180021FD20460BB0BDE8F0835A2BF4D106B1BC
:10C428003370002D4AD1B8F1000FEFD002AAC7F13E
:10C43800050105A804F0C0FD002844D19DF8083086
:10C4480088F80030E2E7002E2FD1002DEBD005A8A8
:10C4580004F0FEFD032831D9C7F1030101AB07AA97
:10C4680005A804F0D5FD014688BB019B102228339E
:10C478006B4403F80C0C07A803F062FD0923E8607D
:10C488000193C7F1040101AB07AA05A804F0C0FD98
:10C498000146E0B9019B102228336B4403F80C0CC9
:10C4A80007A803F04DFDA860BDE73370CDE70CDBAE
:10C4B80006B13070002DB6D05A28C8D14FF0FF33DE
:10C4C800C5E90233AFE70023BAE704469EE70C4606
:10C4D8009CE700BF51290100002373B506460D46AD
:10C4E800CDE9003321B318B30421684604F088FC71
:10C4F8000446D0B901466A46304604F068FC044652
:10C5080080B92A460221684604F06EFD044648B9FF
:10C51800D5E90032084999424FF00803934138BFE2
:10C528006FF01504684604F095FC204602B070BD13
:10C538006FF01504F9E700BF00E099502DE9F043CA
:10C548000B230D46002106468DB0CDE90911049351
:10C55800CDF82B10421E12F8013F2C2B01D10131CE
:10C56800F9E7002BF7D185F830304FF0FF3303316E
:10C57800AB6007A804F044FC0446002840F0C680DD
:10C58800014607AA304604F022FC0446002800F0C1
:10C59800A480C31D40F0B7800127002104AB09AA7D
:10C5A80007A804F035FD0446002840F0AC80764A20
:10C5B800049909A804F0E6FD002800F0A4800121F0
:10C5C80001AA07A804F0F8FC002840F08480019B29
:10C5D800002B40F0D680022102AA07A804F00FFE23
:10C5E800002878D1029B4FF00708B3F1805FA4BF01
:10C5F8004FF0FF330293029B0321AB6005AA03AB04
:10C6080007A8CDF80C8004F003FD002863D1039B34
:10C618000A2130336B4403F81C0C2A1D0DF1170056
:10C6280004F0C7FD002856D18DF817002A460A21C4
:10C6380005A804F0BEFD00284DD1042102AA07A8D0
:10C6480004F0DDFD002846D1029B0521EB6002AA1B
:10C6580007A804F0B1FC00283DD1029B0621AB825B
:10C6680005F1100207A804F0A7FC002833D14146C1
:10C6780005F1280207A804F06BFC60BB082102AA98
:10C6880007A804F099FC30BB029B09216B8502AA1C
:10C6980007A804F091FCF0B9029B0A21AB8505F1CB
:10C6A800200207A804F0A0FCA8B9304604F0EDFD6C
:10C6B80085F83000C0B200EB800000F10B0607A837
:10C6C80004F0C6FC86420AD2314605F1180207A8D2
:10C6D80004F08AFC38B1044615E007465DE70022FD
:10C6E8000023C5E9062395F8303063B16B6B53B16D
:10C6F8000F264FF0000895F8303098450AD3002FE0
:10C7080018BF6FF0060407A804F0A4FB20460DB07C
:10C71800BDE8F0836A6B311F02EB081207A84FEAE5
:10C72800081904F049FC0028D5D16A6BF11E4A4467
:10C73800083207A804F00CFC0028CCD102AAB11ECC
:10C7480007A804F039FC0028C5D16B6B029A4B444A
:10C758005A81711E02AA07A804F02EFC0028BAD13B
:10C768006B6B029A4B449A816A6B31464A44043295
:10C7780007A804F021FC05360028ACD108F101080F
:10C78800B9E70124BFE700BF2F2901002DE9F04FC9
:10C798000B2300240E469FB01746CDE90F440390A3
:10C7A800CDF843400A934A1E12F8013F2C2B01D1C1
:10C7B8000134F9E7002BF7D14FF0FF324FF0300C7E
:10C7C800E11C87F8383087F83030BA600398407831
:10C7D800984246D80DA804F013FB0546002840F0FF
:10C7E800718101460DAA304604F0F1FA0546002889
:10C7F80041D0C31D40F066814FF0010900210AAB0A
:10C808000FAA0DA804F004FC0546002840F05A8140
:10C81800B24A0A990FA804F0B5FC0290002800F06B
:10C828005181012107AA0DA804F0C6FB002840F099
:10C838005081079B012B00F04E81AB460126A4F1E5
:10C848000A0301950593059BB34204D9039B019AFA
:10C858005B78934211D8B9F1000F18BF6FF0060545
:10C8680030E10CFB03F5F86B013328448260F86B68
:10C8780028448282AAE78146C0E708AA711C0DA84D
:10C8880004F0BDFC0446002840F01B81089B0BAA5D
:10C89800B3F1805FA4BF4FF0FF330893089BB11C2E
:10C8A800149307230DA8099309AB04F0B1FB0446C0
:10C8B800002840F00681099B0A2178336B4403F86D
:10C8C8004C0C13AA0DF12F0004F073FC0446002849
:10C8D80040F0F7808DF82F000A2112AA0BA804F067
:10C8E80068FC0446002840F0EC8008AAF11C0DA85A
:10C8F80004F085FC0446002840F0E380089B08AA61
:10C90800311D0DA8159304F057FB0446002840F08C
:10C91800D880089B18AA711D0DA8ADF85C3004F0EA
:10C9280063FB0446002840F0CC8016AAB11D0DA870
:10C9380004F042FB0446002840F0C3801CAAF11D05
:10C948000DA804F005FB0446002840F0BA800DF15C
:10C95800720206F108010DA804F0FAFA044600284C
:10C9680040F0AF801DAA06F109010DA804F0F0FA05
:10C978000446002840F0A5801AAA06F10A010DA86D
:10C9880004F032FB0446002840F09B800DF11A02A7
:10C9980006F10B010DA804F0DBFA0446002840F06C
:10C9A80090800C3631460DF11A020DA8BDF91A8097
:10C9B80004F0CEFA0446002840F08380B8F1000F56
:10C9C80068D0BE460DF1480CBCE80F00AEE80F0079
:10C9D800BCE80F00AEE80F009CE80F009DF81A8035
:10C9E8008EE80F00B8F1000F10D0B8F10A0F94BF0D
:10C9F80044460A24029B4FF01001204688BF9946FE
:10CA080005F03CF940B1786387F830404FF00008F2
:10CA18000494049B434503D1019B0133019312E71E
:10CA28007A6B711C02EB08120DA804F0C5FA4FEAE4
:10CA3800081A0446002844D17A6BB11C52440832C3
:10CA48000DA804F085FA044600283AD108AAF11C7A
:10CA58000DA804F0B1FA0446002832D17B6B089A7D
:10CA680053445A81311D08AA0DA804F0A5FA0446BA
:10CA780038BB7B6B089A53449A817A6B05365244CB
:10CA8800314604320DA804F097FA0446C8B908F1F3
:10CA98000108BEE73022FB6B12AC02FB0B3C0FCC4B
:10CAA800ACE80F000FCCACE80F0094E80F008CE85E
:10CAB8000F0097F838300BF1010B013387F8383045
:10CAC800AAE725460DA804F0C5F928461FB0BDE819
:10CAD800F08F0546F6E71D46F4E700BF2F29010051
:10CAE800F8B50E460446B0B1A9B108210D4A04F0C4
:10CAF80049FB98B100250C4F0834214657F8040B20
:10CB0800FCF766FA08B93570F8BD0135052DF4D182
:10CB18006FF03C00F8E76FF01500F5E76FF00400E0
:10CB2800F2E700BF9A2901001025010008B588B96D
:10CB38000948FCF757FA18B10749084801F084FB7F
:10CB48000748FCF74FFA28B1BDE8084004490348F4
:10CB580001F07ABB08BD00BF102A01002F2A01008E
:10CB6800322A01002DE9F0411F46154B044693F87F
:10CB780000800D461646A2B0B8F1000F15D16846E0
:10CB880003F022FF3A4631462846289BA047044630
:10CB9800684603F01AFFB8F1000F02D0094802F006
:10CBA8009BF8204622B0BDE8F0814FF0FF324FF0ED
:10CBB800FF33044802F016F80028E0D01F24F0E7FD
:10CBC8005AD4002060C7002030B595B005460C4601
:10CBD8003022002108A805F086F83F23079307AB09
:10CBE800039334230694CDE9043554B1012305AAEF
:10CBF800009200210448019303AA00F007F815B039
:10CC080030BD2046FBE700BF0001004030B401F50D
:10CC18000045B5F5803F039C0DD243EA0405FF2D7E
:10CC280009D844EA0324134644EA0142014630BCC9
:10CC38000348FFF797BF6FF0800030BC704700BF14
:10CC4800217C0000014B024A1A607047B8C50020D9
:10CC58000090D00370B501250268B2FA82F3C3F1DF
:10CC68001F03DBB205FA03F422EA0404D0E8EF6FED
:10CC7800964204D1C0E8EC4FBCF1000FF6D1EBD1DD
:10CC880001480B7070BD00BF0000AD0B10B5036804
:10CC9800CB40DB0710D401238B40026843EA020132
:10CCA800D0E8EF4F944204D1C0E8EC1FBCF1000F6C
:10CCB800F6D1F2D1014810BD0148FCE70000AD0BE8
:10CCC8000400AD0BF7B5044618B101281ED003B017
:10CCD800F0BD0222274B0746C3F80823C3F8040116
:10CCE800D3F804210122DA60012342F21075214EA3
:10CCF8008DF80730B4B1012CE9D187B3D6F80C34DC
:10CD080003F001033B70D6F80C3413E00022194BF2
:10CD18000DF10707C3F80803C3F80021D3F8002171
:10CD28005860E1E78FB1D6F8183403F003033B707D
:10CD3800D6F81834DA03CAD59DF807000128C6D1F9
:10CD480004F0FDFA013DD5D1C1E7D6F81834D9036E
:10CD5800BDD5012004F0F3FA013DF6D1B7E7D6F8C6
:10CD68000C34DB03B3D5012004F0E9FA013DF6D118
:10CD7800ADE700BF00500040044B1A7922B90122E8
:10CD880018601A71024870470248704770CB00203B
:10CD98000000AD0B0C00AD0B08B50520FDF76CF8D5
:10CDA80010B90520FDF75AF80122024BC3F81825DF
:10CDB80008BD00BF0050004008B510B101282ED0B2
:10CDC80008BD1C4AD2F81834D2F81814C9030ED476
:10CDD800D2F81434DB0713D5D2F81C3403F003035C
:10CDE800013B012B09D80223C2F80433E8E703F01A
:10CDF8000303022B05D0012B02D00020FFF762FFAE
:10CE080001230C4AC2F818350023C2F80431D2F8BD
:10CE180004310223C2F8043301239360D0E70022CF
:10CE2800044BC3F80021D3F80021C3F804031860A9
:10CE3800C6E700BF0050004010B5174BD3F80021DB
:10CE480052B10020C3F80001D3F800210122C3F831
:10CE58000823124B1B6898470F4BD3F804218AB15B
:10CE68000022C3F80421D3F80421D3F81824D3F8F6
:10CE7800181402F00302012A4FF0020103D1C3F88B
:10CE880018159A6010BDC3F80813044B0120BDE8BB
:10CE980010401B68184700BF0050004070CB0020AE
:10CEA80001460148FFF7D6BEBCC50020064A00F07F
:10CEB8001F0002EB8002D2F8003223F4403343EA29
:10CEC8000143C2F80032704700258440034B083004
:10CED80033F81000C0F34010704700BFC0C50020F1
:10CEE80070B50D4C00F1080334F813300546DA0527
:10CEF8000E4607D5C3F3432304EBC302526854F824
:10CF080033309847A3682BB131462846E268BDE81C
:10CF18007040184770BD00BFC0C5002010B4124A49
:10CF2800083032F81030D9051BD5C3F3432123F458
:10CF3800F85322F81030002002F10E0434F8023FB2
:10CF480013F4807F03D0C3F34323994209D00130FF
:10CF58002028F3D1002342F83130044810BCFFF7F1
:10CF680095BE10BC704700BFC0C5002014C6002085
:10CF780038B50246FFF7AAFF0B4C02F1080560B16D
:10CF8800002134F815305B0B9B0003F1804303F557
:10CF98004433C3F81015C3F810151046FFF7BEFF49
:10CFA800002324F8153038BDC0C500202DE9F34111
:10CFB80004461D4609B34E4F00F1080837F81860BB
:10CFC800B30706D5FFF782FF18B14A4802B0BDE89B
:10CFD800F081494804F01F0300EB8300D0F80032C9
:10CFE800097823F00F0326F0020643EA810346F08E
:10CFF8000106C0F8003227F818609AB13C4E04F1D7
:10D00800080736F81710137811F0020F50680CD083
:10D018000028DAD136F8172022F01C0242EA8303EE
:10D0280026F81730D5BB3548D0E721F02001C904D0
:10D03800C90C26F817100028ECD0032BC5D8526865
:10D0480092F800C06246920002F1804202F5443232
:10D0580023B9C2F81035C2F81035DBE7D2F810054D
:10D0680041EA4C3120F00300C2F81005D2F810054F
:10D0780041F0200120F4473020F44070C2F8100538
:10D088002002D2F810E500F4F85040EA034040EAE4
:10D098000E00C2F8100526F81710BBE72046D5E9A0
:10D0A8000067FFF73BFF002EBDD0114DD5E90023E7
:10D0B800964201D19F4218D011480DF10701FFF7A0
:10D0C800C9FD0E4B984281D19DF8072005EBC2039C
:10D0D80008345F6035F8143045F8326043EA42237B
:10D0E80043F4807325F814309DE70022EEE700BF73
:10D0F800C0C500200400AD0B002584400000AD0B26
:10D1080014C60020F8B5044679B33A4E00F1080772
:10D1180036F81750AB0704D4FFF7D8FE08B13648E5
:10D12800F8BD15F01C0F4B7822D104F01F00DFF872
:10D13800CCC000F1800E5CF82EC091F802E05B00D4
:10D148002CF4E16C097843EA8E032CF0070C43EACF
:10D158000C0343EA0123294943F00103803045F0D9
:10D16800030541F8203026F8175022B92448D7E79C
:10D17800012BDAD1D3E71F4E04F1080736F8170060
:10D188008307CCD592F800C00023614620F0200028
:10D19800890001F18041C00401F54431C00CC1F897
:10D1A800103526F81700C1F810355578002DDDD058
:10D1B800D1F81035927823F4981323F4F853C1F872
:10D1C8001035D1F810E5230203F4F8532D0443EA8F
:10D1D8000E0305F4403512052B4302F4801240EA91
:10D1E8004C30134340F02000C1F8103526F81700E2
:10D1F800BCE700BFC0C500200400AD0B002584407B
:10D208000000AD0B014BC3E902017047C0C5002007
:10D2180008B50246FFF75AFE38B1054B083233F815
:10D22800123004485B0B0B7008BD0348FCE700BFD5
:10D23800C0C500200000AD0B0400AD0B38B50F4C85
:10D2480094F85850BDB94022294604F1100004F062
:10D258004AFD3120FCF702FE094B0A48C3F87C510D
:10D26800D3F87C214FF00042C3F80423012384F84B
:10D278005830636538BD0448FCE700BFC0C50020CE
:10D28800001003400000AD0B0500AD0B034B93F8F5
:10D298005800003818BF0120704700BFC0C50020E3
:10D2A80001460148FFF7F2BC10C6002001460148BC
:10D2B800FFF7D0BC10C60020024610B5FFF706FEE7
:10D2C8001B4B02F1080433F81430C8B113F0020400
:10D2D80016D118485B0B9A008450805802F180429E
:10D2E80002F54432D2F8100540F00100C2F81005EA
:10D2F80029B1012202FA03F30F4AC2F8043310BD20
:10D30800C3F38203042B0ED0052B0ED00B4B1969E7
:10D3180002F01F03D94001F0010102311046BDE8B7
:10D328001040FFF7C3BD0321F8E70221F6E700BF6D
:10D33800C0C50020001103400010034000258440B0
:10D3480008B50246FFF7C2FDC0B10F4B02F1080154
:10D3580033F81130990711D401225B0B9A400B491D
:10D368009B0003F18043C1F8082303F54433D3F845
:10D37800102522F00302C3F8102508BD0021BDE8DE
:10D3880008401046FFF792BDC0C5002000100340BA
:10D3980010B50C4B00F1080233F812300446DB07D5
:10D3A8000DD5FFF7CDFF2046FFF7E2FD0222064B21
:10D3B80004F01F048034054843F8242010BD0448B5
:10D3C800FCE700BFC0C50020002584400000AD0B6D
:10D3D8000400AD0B2DE9F04F002501222C464D4BE2
:10D3E8004D484E4985B01E6836B1D0F804631642E0
:10D3F8001EBF1C601E68154304338B424FEA42026D
:10D40800F1D1454FD7F87C3193B1454E0DF10C0958
:10D41800336A039333624FF0010A039870B9C7F86F
:10D428007C01D7F87C31336A03933362002BF2D145
:10D438000124002D56D105B0BDE8F08F90FAA0FB6D
:10D44800BBFA8BFB374A0BF108034FEADB0C32F8C7
:10D4580013100BF0070419F80C300AFA04F423EA45
:10D46800040309F80C3006EB8B03D3F80042C1F330
:10D478008202C9069046C4F3014418D5114658469D
:10D488000193FFF72DFD019BE4B2D3F80032C3F3FB
:10D4980001439C4207D100215846FFF707FD21466A
:10D4A8005846FFF703FD0AFA0BF03062B5E7022C85
:10D4B8000CD103215846FFF7F9FC08F00503012BAE
:10D4C800F1D141465846FFF70BFDECE702215846DB
:10D4D8000192FFF7EBFC019A032AF2D0032CE2D168
:10D4E8008A42EDE795FAA5F3B3FA83F304FA03F257
:10D4F8009B0003F1804303F54433D3F81005D3F8B8
:10D508001015C0F30420C1F3014125EA0205FFF715
:10D51800E7FC8EE700110340001003402011034090
:10D5280000258440C0C5002070B5084C0E462379FC
:10D53800154643B92A20FCF791FC012304482371BE
:10D548002660A56070BD0348FCE700BF78CB0020CB
:10D558000000AD0B0C00AD0B002330B50D4A50F8A0
:10D56800234003F5A2710133082B42F82140F6D17C
:10D578000023084A00F11C0103F5B27451F8045F56
:10D588000133082B42F82450F6D1036CC2F8043357
:10D5980030BD00BF00A0024000234FF0FF31134A06
:10D5A800C2F81035C2F81435C2F81835C2F81C355F
:10D5B800C2F82035C2F82435C2F82835C2F82C350F
:10D5C800C2F89035C2F89435C2F89835C2F89C353F
:10D5D800C2F8A035C2F8A435C2F8A835C2F8AC35EF
:10D5E800C2F80813024A1371704700BF00A0024036
:10D5F80078CB00200123024A8340C2F804337047E5
:10D6080000A002400123024A8340C2F80833704751
:10D6180000A00240F8B5012600270B4B0B4DD3F8AC
:10D628000C4304B9F8BD94FAA4F0B0FA80F006FAF5
:10D6380000F324EA0304064B82009F502B68002B5A
:10D64800EFD0A9689847ECE700A0024078CB00200B
:10D6580000A1024070B503680446DBB2042B09D070
:10D66800032B15D0062B15D0072B15D08068A8B929
:10D67800002070BD00230B4A204602EBC3035D68FF
:10D6880003F0B4FE21682B46BDE87040090C18472A
:10D698000123F0E70223EEE70323ECE700F016F896
:10D6A800E6E700BF64250100014B9B69184700BFEE
:10D6B8001CC60020014B1B68184700BF1CC6002071
:10D6C800014BDB68184700BF1CC60020014B5B6993
:10D6D800184700BF1CC60020014B9B68184700BFB5
:10D6E8001CC60020014B1B68D868704784CB0020FB
:10D6F800002330B510490A681468A3420BD10023EF
:10D708004A6811688B4215D002EBC304A468A04292
:10D7180008D00133F6E702EBC305AD68A84201D093
:10D728000133EAE702EBC302536823F0FF0343F037
:10D738000303536030BD00BFA4CB0020002230B5E6
:10D748000B4B19680C6894420FD001EBC2039D681B
:10D75800A8420BD14FF003020433D3E8CF1F0029AE
:10D7680003D1C3E8C02F0028F7D130BD0132EAE762
:10D778009CCB00202DE9F041002506460F4628469F
:10D78800DFF864803368AB4201D8BDE8F08106EB6E
:10D79800C5046368DBB2012B17D16268B8F80030A2
:10D7A800B3EB124F11D1022FA06810D1FFF752FF2F
:10D7B80090B9636823F0FF0343F00303636001201B
:10D7C800B8F800300133A8F800300135DAE701680D
:10D7D800090C03F0B8FDEBE70128F0D1636823F0EA
:10D7E800FF0343F00203E9E79CCF002038B5074D5B
:10D7F80001212868FFF7BEFF022104466868FFF789
:10D80800B9FF0028F4D1002CF2D138BDA4CB0020F8
:10D8180070B5072868D8DFE800F00B674F674B67DB
:10D82800400400F0A3FF0320BDE87040FDF788BF67
:10D8380003202E4BD3F81446D3F818662C4B1D78CA
:10D84800187000F069FF2B4BEDB2186803F079FAF5
:10D85800012D1CD1284B9C4210D009D8023B9C4278
:10D868000FD001339C420FD0244B1C600020DBE713
:10D87800234B9C42F8D16FF00C04F5E76FF00B04D2
:10D88800F2E76FF01504EFE76FF08504ECE7314637
:10D89800C4F30B0000F034FFE8E70222144B002029
:10D8A8001A7000F039FF134B186803F04AFADDE7E5
:10D8B800FFF79CFF0220B7E70D4B1A78012AD0B278
:10D8C8000ED1104A1168104A8C685460496811607A
:10D8D80000221A7000F020FF064B186803F031FA96
:10D8E800FFF784FF01209FE770BD00BF00A0024042
:10D8F8004ED400208CCB002022000100A0CB0020B9
:10D908003230010088CB0020A4CB0020F8B5164B9C
:10D9180042681B68154C22F0FF0242F00202C31A4B
:10D9280042602168124AC3F38913D2E8DF5F6E1C94
:10D93800C2E8D76F002FF8D101EBC3014A6892B251
:10D9480042EA05424A60226802EBC30398605A68BB
:10D95800032022F0FF0242F001025A6003F0E7F9C7
:10D968000122044BDA60F8BD94CB00209CCB002048
:10D978009ECF002000A002400A23F7B54FF47A7525
:10D988000C4E0D4F01933168386803F00EFD0446C4
:10D9980040B903F0D4F940B9012001A9FDF7F4FD1D
:10D9A8006E30F0D1204603B0F0BD0198684303F013
:10D9B800BEF9E8E790CB002098CB0020054B1B78F8
:10D9C8002BB9054B1968054B186803F0EEBC00200D
:10D9D800704700BF4DD4002094CB00209CCB002082
:10D9E8002DE9F04F95B038220021064603A804F02F
:10D9F8007AF9022304930823069320230893042327
:10DA08000D93102340250F9380230122CDE9115354
:10DA1800D523002155480B921393FDF777FE054651
:10DA2800002840F09F80024651493079FFF77CFD7D
:10DA380003A8FFF791FD34686268B2F59D6F40F066
:10DA480089806169E3680B44E16903F59D630B44D0
:10DA5800B3F5003F7ED82068294604F044F93368BE
:10DA68001C68D3F81C9004F53A72019204F160071F
:10DA7800404A04F1A40804F1200BB9F1000F5CD16D
:10DA8800C2F800B000254FF0010A2570657084F8CF
:10DA980002A0E570336840461B69636033685B69C0
:10DAA800C4F814B0A360344BC4F81890C3F80080CD
:10DAB800324BE7601F600823C4F8108084F8A43054
:10DAC80088F8015088F8025088F8035084F86030CC
